{
	"data": {
		"bytecode": {
			"linkReferences": {},
			"object": "6080604052348015600e575f80fd5b5061035e8061001c5f395ff3fe608060405234801561000f575f80fd5b506004361061004a575f3560e01c8063225d5a031461004e5780634fd7d76a1461006a578063589af69c14610088578063750a4937146100a6575b5f80fd5b61006860048036038101906100639190610163565b6100c5565b005b6100726100f4565b60405161007f91906101b0565b60405180910390f35b6100906100f9565b60405161009d91906101b0565b60405180910390f35b6100ae6100ff565b6040516100bc9291906101c9565b60405180910390f35b6305f5e100826100d5919061021d565b5f819055506305f5e100816100ea919061021d565b6001819055505050565b5f5481565b60015481565b5f806305f5e1005f5461011291906102c0565b6305f5e10060015461012491906102c0565b915091509091565b5f80fd5b5f819050919050565b61014281610130565b811461014c575f80fd5b50565b5f8135905061015d81610139565b92915050565b5f80604083850312156101795761017861012c565b5b5f6101868582860161014f565b92505060206101978582860161014f565b9150509250929050565b6101aa81610130565b82525050565b5f6020820190506101c35f8301846101a1565b92915050565b5f6040820190506101dc5f8301856101a1565b6101e960208301846101a1565b9392505050565b7f4e487b71000000000000000000000000000000000000000000000000000000005f52601160045260245ffd5b5f61022782610130565b915061023283610130565b925082820261024081610130565b91507f800000000000000000000000000000000000000000000000000000000000000084145f84121615610277576102766101f0565b5b828205841483151761028c5761028b6101f0565b5b5092915050565b7f4e487b71000000000000000000000000000000000000000000000000000000005f52601260045260245ffd5b5f6102ca82610130565b91506102d583610130565b9250826102e5576102e4610293565b5b60015f0383147f80000000000000000000000000000000000000000000000000000000000000008314161561031d5761031c6101f0565b5b82820590509291505056fea2646970667358221220dfc0d6329d933e0d1af0b342aa24b23087110f4269e09bb38137301f73e0e0b464736f6c63430008190033",
			"opcodes": "PUSH1 0x80 PUSH1 0x40 MSTORE CALLVALUE DUP1 ISZERO PUSH1 0xE JUMPI PUSH0 DUP1 REVERT JUMPDEST POP PUSH2 0x35E DUP1 PUSH2 0x1C PUSH0 CODECOPY PUSH0 RETURN INVALID PUSH1 0x80 PUSH1 0x40 MSTORE CALLVALUE DUP1 ISZERO PUSH2 0xF JUMPI PUSH0 DUP1 REVERT JUMPDEST POP PUSH1 0x4 CALLDATASIZE LT PUSH2 0x4A JUMPI PUSH0 CALLDATALOAD PUSH1 0xE0 SHR DUP1 PUSH4 0x225D5A03 EQ PUSH2 0x4E JUMPI DUP1 PUSH4 0x4FD7D76A EQ PUSH2 0x6A JUMPI DUP1 PUSH4 0x589AF69C EQ PUSH2 0x88 JUMPI DUP1 PUSH4 0x750A4937 EQ PUSH2 0xA6 JUMPI JUMPDEST PUSH0 DUP1 REVERT JUMPDEST PUSH2 0x68 PUSH1 0x4 DUP1 CALLDATASIZE SUB DUP2 ADD SWAP1 PUSH2 0x63 SWAP2 SWAP1 PUSH2 0x163 JUMP JUMPDEST PUSH2 0xC5 JUMP JUMPDEST STOP JUMPDEST PUSH2 0x72 PUSH2 0xF4 JUMP JUMPDEST PUSH1 0x40 MLOAD PUSH2 0x7F SWAP2 SWAP1 PUSH2 0x1B0 JUMP JUMPDEST PUSH1 0x40 MLOAD DUP1 SWAP2 SUB SWAP1 RETURN JUMPDEST PUSH2 0x90 PUSH2 0xF9 JUMP JUMPDEST PUSH1 0x40 MLOAD PUSH2 0x9D SWAP2 SWAP1 PUSH2 0x1B0 JUMP JUMPDEST PUSH1 0x40 MLOAD DUP1 SWAP2 SUB SWAP1 RETURN JUMPDEST PUSH2 0xAE PUSH2 0xFF JUMP JUMPDEST PUSH1 0x40 MLOAD PUSH2 0xBC SWAP3 SWAP2 SWAP1 PUSH2 0x1C9 JUMP JUMPDEST PUSH1 0x40 MLOAD DUP1 SWAP2 SUB SWAP1 RETURN JUMPDEST PUSH4 0x5F5E100 DUP3 PUSH2 0xD5 SWAP2 SWAP1 PUSH2 0x21D JUMP JUMPDEST PUSH0 DUP2 SWAP1 SSTORE POP PUSH4 0x5F5E100 DUP2 PUSH2 0xEA SWAP2 SWAP1 PUSH2 0x21D JUMP JUMPDEST PUSH1 0x1 DUP2 SWAP1 SSTORE POP POP POP JUMP JUMPDEST PUSH0 SLOAD DUP2 JUMP JUMPDEST PUSH1 0x1 SLOAD DUP2 JUMP JUMPDEST PUSH0 DUP1 PUSH4 0x5F5E100 PUSH0 SLOAD PUSH2 0x112 SWAP2 SWAP1 PUSH2 0x2C0 JUMP JUMPDEST PUSH4 0x5F5E100 PUSH1 0x1 SLOAD PUSH2 0x124 SWAP2 SWAP1 PUSH2 0x2C0 JUMP JUMPDEST SWAP2 POP SWAP2 POP SWAP1 SWAP2 JUMP JUMPDEST PUSH0 DUP1 REVERT JUMPDEST PUSH0 DUP2 SWAP1 POP SWAP2 SWAP1 POP JUMP JUMPDEST PUSH2 0x142 DUP2 PUSH2 0x130 JUMP JUMPDEST DUP2 EQ PUSH2 0x14C JUMPI PUSH0 DUP1 REVERT JUMPDEST POP JUMP JUMPDEST PUSH0 DUP2 CALLDATALOAD SWAP1 POP PUSH2 0x15D DUP2 PUSH2 0x139 JUMP JUMPDEST SWAP3 SWAP2 POP POP JUMP JUMPDEST PUSH0 DUP1 PUSH1 0x40 DUP4 DUP6 SUB SLT ISZERO PUSH2 0x179 JUMPI PUSH2 0x178 PUSH2 0x12C JUMP JUMPDEST JUMPDEST PUSH0 PUSH2 0x186 DUP6 DUP3 DUP7 ADD PUSH2 0x14F JUMP JUMPDEST SWAP3 POP POP PUSH1 0x20 PUSH2 0x197 DUP6 DUP3 DUP7 ADD PUSH2 0x14F JUMP JUMPDEST SWAP2 POP POP SWAP3 POP SWAP3 SWAP1 POP JUMP JUMPDEST PUSH2 0x1AA DUP2 PUSH2 0x130 JUMP JUMPDEST DUP3 MSTORE POP POP JUMP JUMPDEST PUSH0 PUSH1 0x20 DUP3 ADD SWAP1 POP PUSH2 0x1C3 PUSH0 DUP4 ADD DUP5 PUSH2 0x1A1 JUMP JUMPDEST SWAP3 SWAP2 POP POP JUMP JUMPDEST PUSH0 PUSH1 0x40 DUP3 ADD SWAP1 POP PUSH2 0x1DC PUSH0 DUP4 ADD DUP6 PUSH2 0x1A1 JUMP JUMPDEST PUSH2 0x1E9 PUSH1 0x20 DUP4 ADD DUP5 PUSH2 0x1A1 JUMP JUMPDEST SWAP4 SWAP3 POP POP POP JUMP JUMPDEST PUSH32 0x4E487B7100000000000000000000000000000000000000000000000000000000 PUSH0 MSTORE PUSH1 0x11 PUSH1 0x4 MSTORE PUSH1 0x24 PUSH0 REVERT JUMPDEST PUSH0 PUSH2 0x227 DUP3 PUSH2 0x130 JUMP JUMPDEST SWAP2 POP PUSH2 0x232 DUP4 PUSH2 0x130 JUMP JUMPDEST SWAP3 POP DUP3 DUP3 MUL PUSH2 0x240 DUP2 PUSH2 0x130 JUMP JUMPDEST SWAP2 POP PUSH32 0x8000000000000000000000000000000000000000000000000000000000000000 DUP5 EQ PUSH0 DUP5 SLT AND ISZERO PUSH2 0x277 JUMPI PUSH2 0x276 PUSH2 0x1F0 JUMP JUMPDEST JUMPDEST DUP3 DUP3 SDIV DUP5 EQ DUP4 ISZERO OR PUSH2 0x28C JUMPI PUSH2 0x28B PUSH2 0x1F0 JUMP JUMPDEST JUMPDEST POP SWAP3 SWAP2 POP POP JUMP JUMPDEST PUSH32 0x4E487B7100000000000000000000000000000000000000000000000000000000 PUSH0 MSTORE PUSH1 0x12 PUSH1 0x4 MSTORE PUSH1 0x24 PUSH0 REVERT JUMPDEST PUSH0 PUSH2 0x2CA DUP3 PUSH2 0x130 JUMP JUMPDEST SWAP2 POP PUSH2 0x2D5 DUP4 PUSH2 0x130 JUMP JUMPDEST SWAP3 POP DUP3 PUSH2 0x2E5 JUMPI PUSH2 0x2E4 PUSH2 0x293 JUMP JUMPDEST JUMPDEST PUSH1 0x1 PUSH0 SUB DUP4 EQ PUSH32 0x8000000000000000000000000000000000000000000000000000000000000000 DUP4 EQ AND ISZERO PUSH2 0x31D JUMPI PUSH2 0x31C PUSH2 0x1F0 JUMP JUMPDEST JUMPDEST DUP3 DUP3 SDIV SWAP1 POP SWAP3 SWAP2 POP POP JUMP INVALID LOG2 PUSH5 0x6970667358 0x22 SLT KECCAK256 0xDF 0xC0 0xD6 ORIGIN SWAP14 SWAP4 RETURNDATACOPY 0xD BYTE CREATE 0xB3 TIMESTAMP 0xAA 0x24 0xB2 ADDRESS DUP8 GT 0xF TIMESTAMP PUSH10 0xE09BB38137301F73E0E0 0xB4 PUSH5 0x736F6C6343 STOP ADDMOD NOT STOP CALLER "
		},
		"gasEstimates": {
			"creation": {
				"codeDepositCost": "172400",
				"executionCost": "212",
				"totalCost": "172612"
			},
			"external": {
				"getCoordinates()": "infinite",
				"latitude()": "2424",
				"longitude()": "2447",
				"storeCoordinates(int256,int256)": "infinite"
			}
		},
		"methodIdentifiers": {
			"getCoordinates()": "750a4937",
			"latitude()": "4fd7d76a",
			"longitude()": "589af69c",
			"storeCoordinates(int256,int256)": "225d5a03"
		}
	},
	"abi": [
		{
			"inputs": [],
			"name": "getCoordinates",
			"outputs": [
				{
					"internalType": "int256",
					"name": "",
					"type": "int256"
				},
				{
					"internalType": "int256",
					"name": "",
					"type": "int256"
				}
			],
			"stateMutability": "view",
			"type": "function"
		},
		{
			"inputs": [],
			"name": "latitude",
			"outputs": [
				{
					"internalType": "int256",
					"name": "",
					"type": "int256"
				}
			],
			"stateMutability": "view",
			"type": "function"
		},
		{
			"inputs": [],
			"name": "longitude",
			"outputs": [
				{
					"internalType": "int256",
					"name": "",
					"type": "int256"
				}
			],
			"stateMutability": "view",
			"type": "function"
		},
		{
			"inputs": [
				{
					"internalType": "int256",
					"name": "lat",
					"type": "int256"
				},
				{
					"internalType": "int256",
					"name": "lon",
					"type": "int256"
				}
			],
			"name": "storeCoordinates",
			"outputs": [],
			"stateMutability": "nonpayable",
			"type": "function"
		}
	]
}