{
	"data": {
		"bytecode": {
			"linkReferences": {},
			"object": "6080604052348015600e575f80fd5b506102f28061001c5f395ff3fe608060405234801561000f575f80fd5b5060043610610034575f3560e01c8063225d5a0314610038578063750a493714610054575b5f80fd5b610052600480360381019061004d9190610110565b610073565b005b61005c6100a2565b60405161006a92919061015d565b60405180910390f35b6305f5e1008261008391906101b1565b5f819055506305f5e1008161009891906101b1565b6001819055505050565b5f805f6305f5e1005f546100b69190610254565b90505f6305f5e1006001546100cb9190610254565b905081819350935050509091565b5f80fd5b5f819050919050565b6100ef816100dd565b81146100f9575f80fd5b50565b5f8135905061010a816100e6565b92915050565b5f8060408385031215610126576101256100d9565b5b5f610133858286016100fc565b9250506020610144858286016100fc565b9150509250929050565b610157816100dd565b82525050565b5f6040820190506101705f83018561014e565b61017d602083018461014e565b9392505050565b7f4e487b71000000000000000000000000000000000000000000000000000000005f52601160045260245ffd5b5f6101bb826100dd565b91506101c6836100dd565b92508282026101d4816100dd565b91507f800000000000000000000000000000000000000000000000000000000000000084145f8412161561020b5761020a610184565b5b82820584148315176102205761021f610184565b5b5092915050565b7f4e487b71000000000000000000000000000000000000000000000000000000005f52601260045260245ffd5b5f61025e826100dd565b9150610269836100dd565b92508261027957610278610227565b5b60015f0383147f8000000000000000000000000000000000000000000000000000000000000000831416156102b1576102b0610184565b5b82820590509291505056fea26469706673582212206365bc3171a76b905d810160afbda97305fbd390d28bbef4d3e3c64199a8556964736f6c63430008190033",
			"opcodes": "PUSH1 0x80 PUSH1 0x40 MSTORE CALLVALUE DUP1 ISZERO PUSH1 0xE JUMPI PUSH0 DUP1 REVERT JUMPDEST POP PUSH2 0x2F2 DUP1 PUSH2 0x1C PUSH0 CODECOPY PUSH0 RETURN INVALID PUSH1 0x80 PUSH1 0x40 MSTORE CALLVALUE DUP1 ISZERO PUSH2 0xF JUMPI PUSH0 DUP1 REVERT JUMPDEST POP PUSH1 0x4 CALLDATASIZE LT PUSH2 0x34 JUMPI PUSH0 CALLDATALOAD PUSH1 0xE0 SHR DUP1 PUSH4 0x225D5A03 EQ PUSH2 0x38 JUMPI DUP1 PUSH4 0x750A4937 EQ PUSH2 0x54 JUMPI JUMPDEST PUSH0 DUP1 REVERT JUMPDEST PUSH2 0x52 PUSH1 0x4 DUP1 CALLDATASIZE SUB DUP2 ADD SWAP1 PUSH2 0x4D SWAP2 SWAP1 PUSH2 0x110 JUMP JUMPDEST PUSH2 0x73 JUMP JUMPDEST STOP JUMPDEST PUSH2 0x5C PUSH2 0xA2 JUMP JUMPDEST PUSH1 0x40 MLOAD PUSH2 0x6A SWAP3 SWAP2 SWAP1 PUSH2 0x15D JUMP JUMPDEST PUSH1 0x40 MLOAD DUP1 SWAP2 SUB SWAP1 RETURN JUMPDEST PUSH4 0x5F5E100 DUP3 PUSH2 0x83 SWAP2 SWAP1 PUSH2 0x1B1 JUMP JUMPDEST PUSH0 DUP2 SWAP1 SSTORE POP PUSH4 0x5F5E100 DUP2 PUSH2 0x98 SWAP2 SWAP1 PUSH2 0x1B1 JUMP JUMPDEST PUSH1 0x1 DUP2 SWAP1 SSTORE POP POP POP JUMP JUMPDEST PUSH0 DUP1 PUSH0 PUSH4 0x5F5E100 PUSH0 SLOAD PUSH2 0xB6 SWAP2 SWAP1 PUSH2 0x254 JUMP JUMPDEST SWAP1 POP PUSH0 PUSH4 0x5F5E100 PUSH1 0x1 SLOAD PUSH2 0xCB SWAP2 SWAP1 PUSH2 0x254 JUMP JUMPDEST SWAP1 POP DUP2 DUP2 SWAP4 POP SWAP4 POP POP POP SWAP1 SWAP2 JUMP JUMPDEST PUSH0 DUP1 REVERT JUMPDEST PUSH0 DUP2 SWAP1 POP SWAP2 SWAP1 POP JUMP JUMPDEST PUSH2 0xEF DUP2 PUSH2 0xDD JUMP JUMPDEST DUP2 EQ PUSH2 0xF9 JUMPI PUSH0 DUP1 REVERT JUMPDEST POP JUMP JUMPDEST PUSH0 DUP2 CALLDATALOAD SWAP1 POP PUSH2 0x10A DUP2 PUSH2 0xE6 JUMP JUMPDEST SWAP3 SWAP2 POP POP JUMP JUMPDEST PUSH0 DUP1 PUSH1 0x40 DUP4 DUP6 SUB SLT ISZERO PUSH2 0x126 JUMPI PUSH2 0x125 PUSH2 0xD9 JUMP JUMPDEST JUMPDEST PUSH0 PUSH2 0x133 DUP6 DUP3 DUP7 ADD PUSH2 0xFC JUMP JUMPDEST SWAP3 POP POP PUSH1 0x20 PUSH2 0x144 DUP6 DUP3 DUP7 ADD PUSH2 0xFC JUMP JUMPDEST SWAP2 POP POP SWAP3 POP SWAP3 SWAP1 POP JUMP JUMPDEST PUSH2 0x157 DUP2 PUSH2 0xDD JUMP JUMPDEST DUP3 MSTORE POP POP JUMP JUMPDEST PUSH0 PUSH1 0x40 DUP3 ADD SWAP1 POP PUSH2 0x170 PUSH0 DUP4 ADD DUP6 PUSH2 0x14E JUMP JUMPDEST PUSH2 0x17D PUSH1 0x20 DUP4 ADD DUP5 PUSH2 0x14E JUMP JUMPDEST SWAP4 SWAP3 POP POP POP JUMP JUMPDEST PUSH32 0x4E487B7100000000000000000000000000000000000000000000000000000000 PUSH0 MSTORE PUSH1 0x11 PUSH1 0x4 MSTORE PUSH1 0x24 PUSH0 REVERT JUMPDEST PUSH0 PUSH2 0x1BB DUP3 PUSH2 0xDD JUMP JUMPDEST SWAP2 POP PUSH2 0x1C6 DUP4 PUSH2 0xDD JUMP JUMPDEST SWAP3 POP DUP3 DUP3 MUL PUSH2 0x1D4 DUP2 PUSH2 0xDD JUMP JUMPDEST SWAP2 POP PUSH32 0x8000000000000000000000000000000000000000000000000000000000000000 DUP5 EQ PUSH0 DUP5 SLT AND ISZERO PUSH2 0x20B JUMPI PUSH2 0x20A PUSH2 0x184 JUMP JUMPDEST JUMPDEST DUP3 DUP3 SDIV DUP5 EQ DUP4 ISZERO OR PUSH2 0x220 JUMPI PUSH2 0x21F PUSH2 0x184 JUMP JUMPDEST JUMPDEST POP SWAP3 SWAP2 POP POP JUMP JUMPDEST PUSH32 0x4E487B7100000000000000000000000000000000000000000000000000000000 PUSH0 MSTORE PUSH1 0x12 PUSH1 0x4 MSTORE PUSH1 0x24 PUSH0 REVERT JUMPDEST PUSH0 PUSH2 0x25E DUP3 PUSH2 0xDD JUMP JUMPDEST SWAP2 POP PUSH2 0x269 DUP4 PUSH2 0xDD JUMP JUMPDEST SWAP3 POP DUP3 PUSH2 0x279 JUMPI PUSH2 0x278 PUSH2 0x227 JUMP JUMPDEST JUMPDEST PUSH1 0x1 PUSH0 SUB DUP4 EQ PUSH32 0x8000000000000000000000000000000000000000000000000000000000000000 DUP4 EQ AND ISZERO PUSH2 0x2B1 JUMPI PUSH2 0x2B0 PUSH2 0x184 JUMP JUMPDEST JUMPDEST DUP3 DUP3 SDIV SWAP1 POP SWAP3 SWAP2 POP POP JUMP INVALID LOG2 PUSH5 0x6970667358 0x22 SLT KECCAK256 PUSH4 0x65BC3171 0xA7 PUSH12 0x905D810160AFBDA97305FBD3 SWAP1 0xD2 DUP12 0xBE DELEGATECALL 0xD3 0xE3 0xC6 COINBASE SWAP10 0xA8 SSTORE PUSH10 0x64736F6C634300081900 CALLER "
		},
		"gasEstimates": {
			"creation": {
				"codeDepositCost": "150800",
				"executionCost": "194",
				"totalCost": "150994"
			},
			"external": {
				"getCoordinates()": "infinite",
				"storeCoordinates(int256,int256)": "infinite"
			}
		},
		"methodIdentifiers": {
			"getCoordinates()": "750a4937",
			"storeCoordinates(int256,int256)": "225d5a03"
		}
	},
	"abi": [
		{
			"inputs": [],
			"name": "getCoordinates",
			"outputs": [
				{
					"internalType": "int256",
					"name": "",
					"type": "int256"
				},
				{
					"internalType": "int256",
					"name": "",
					"type": "int256"
				}
			],
			"stateMutability": "view",
			"type": "function"
		},
		{
			"inputs": [
				{
					"internalType": "int256",
					"name": "lat",
					"type": "int256"
				},
				{
					"internalType": "int256",
					"name": "lon",
					"type": "int256"
				}
			],
			"name": "storeCoordinates",
			"outputs": [],
			"stateMutability": "nonpayable",
			"type": "function"
		}
	]
}