{
	"contracts/1_Storage.sol": {
		"Storage": {
			"abi": [
				{
					"inputs": [],
					"name": "getCoordinates",
					"outputs": [
						{
							"internalType": "int256",
							"name": "",
							"type": "int256"
						},
						{
							"internalType": "int256",
							"name": "",
							"type": "int256"
						},
						{
							"internalType": "uint256",
							"name": "",
							"type": "uint256"
						},
						{
							"internalType": "uint256",
							"name": "",
							"type": "uint256"
						},
						{
							"internalType": "uint256",
							"name": "",
							"type": "uint256"
						},
						{
							"internalType": "string",
							"name": "",
							"type": "string"
						},
						{
							"internalType": "string",
							"name": "",
							"type": "string"
						},
						{
							"internalType": "string",
							"name": "",
							"type": "string"
						},
						{
							"internalType": "uint256",
							"name": "",
							"type": "uint256"
						},
						{
							"internalType": "uint256",
							"name": "",
							"type": "uint256"
						},
						{
							"internalType": "uint256",
							"name": "",
							"type": "uint256"
						}
					],
					"stateMutability": "view",
					"type": "function"
				},
				{
					"inputs": [
						{
							"internalType": "int256",
							"name": "lat",
							"type": "int256"
						},
						{
							"internalType": "int256",
							"name": "lon",
							"type": "int256"
						},
						{
							"internalType": "uint256",
							"name": "_time1",
							"type": "uint256"
						},
						{
							"internalType": "uint256",
							"name": "_time2",
							"type": "uint256"
						},
						{
							"internalType": "uint256",
							"name": "_time3",
							"type": "uint256"
						},
						{
							"internalType": "string",
							"name": "_ID1",
							"type": "string"
						},
						{
							"internalType": "string",
							"name": "_ID2",
							"type": "string"
						},
						{
							"internalType": "string",
							"name": "_ID3",
							"type": "string"
						},
						{
							"internalType": "uint256",
							"name": "_speed1",
							"type": "uint256"
						},
						{
							"internalType": "uint256",
							"name": "_speed2",
							"type": "uint256"
						},
						{
							"internalType": "uint256",
							"name": "_speed3",
							"type": "uint256"
						}
					],
					"name": "storeCoordinates",
					"outputs": [],
					"stateMutability": "nonpayable",
					"type": "function"
				}
			],
			"devdoc": {
				"custom:dev-run-script": "./scripts/deploy_with_ethers.ts",
				"details": "Store latitude, longitude, time, ID, and speed coordinates",
				"kind": "dev",
				"methods": {
					"getCoordinates()": {
						"details": "Return latitude, longitude, time, ID, and speed coordinates",
						"returns": {
							"_0": "Latitude, longitude, time, ID, and speed coordinates"
						}
					},
					"storeCoordinates(int256,int256,uint256,uint256,uint256,string,string,string,uint256,uint256,uint256)": {
						"details": "Store latitude, longitude, time, ID, and speed coordinates",
						"params": {
							"_ID1": "Identifier",
							"_ID2": "Identifier",
							"_ID3": "Identifier",
							"_speed1": "Speed in km/h",
							"_speed2": "Speed in km/h",
							"_speed3": "Speed in km/h",
							"_time1": "Time of recording",
							"_time2": "Time of recording",
							"_time3": "Time of recording",
							"lat": "Latitude coordinate",
							"lon": "Longitude coordinate"
						}
					}
				},
				"title": "CoordinateStorage",
				"version": 1
			},
			"evm": {
				"assembly": "    /* \"contracts/1_Storage.sol\":230:2470  contract Storage {... */\n  mstore(0x40, 0x80)\n  callvalue\n  dup1\n  iszero\n  tag_1\n  jumpi\n  0x00\n  dup1\n  revert\ntag_1:\n  pop\n  dataSize(sub_0)\n  dup1\n  dataOffset(sub_0)\n  0x00\n  codecopy\n  0x00\n  return\nstop\n\nsub_0: assembly {\n        /* \"contracts/1_Storage.sol\":230:2470  contract Storage {... */\n      mstore(0x40, 0x80)\n      callvalue\n      dup1\n      iszero\n      tag_1\n      jumpi\n      0x00\n      dup1\n      revert\n    tag_1:\n      pop\n      jumpi(tag_2, lt(calldatasize, 0x04))\n      shr(0xe0, calldataload(0x00))\n      dup1\n      0x750a4937\n      eq\n      tag_3\n      jumpi\n      dup1\n      0x9e2c6785\n      eq\n      tag_4\n      jumpi\n    tag_2:\n      0x00\n      dup1\n      revert\n        /* \"contracts/1_Storage.sol\":1974:2468  function getCoordinates() public view returns (int256, int256, uint256, uint256, uint256, string memory, string memory, string memory, uint256, uint256, uint256) {... */\n    tag_3:\n      tag_5\n      tag_6\n      jump\t// in\n    tag_5:\n      mload(0x40)\n      tag_7\n      swap12\n      swap11\n      swap10\n      swap9\n      swap8\n      swap7\n      swap6\n      swap5\n      swap4\n      swap3\n      swap2\n      swap1\n      tag_8\n      jump\t// in\n    tag_7:\n      mload(0x40)\n      dup1\n      swap2\n      sub\n      swap1\n      return\n        /* \"contracts/1_Storage.sol\":1159:1812  function storeCoordinates(int256 lat, int256 lon, uint256 _time1, uint256 _time2, uint256 _time3, string memory _ID1, string memory _ID2, string memory _ID3, uint256 _speed1,  uint256 _speed2,  uint256 _speed3) public {... */\n    tag_4:\n      tag_9\n      0x04\n      dup1\n      calldatasize\n      sub\n      dup2\n      add\n      swap1\n      tag_10\n      swap2\n      swap1\n      tag_11\n      jump\t// in\n    tag_10:\n      tag_12\n      jump\t// in\n    tag_9:\n      stop\n        /* \"contracts/1_Storage.sol\":1974:2468  function getCoordinates() public view returns (int256, int256, uint256, uint256, uint256, string memory, string memory, string memory, uint256, uint256, uint256) {... */\n    tag_6:\n        /* \"contracts/1_Storage.sol\":2021:2027  int256 */\n      0x00\n        /* \"contracts/1_Storage.sol\":2029:2035  int256 */\n      dup1\n        /* \"contracts/1_Storage.sol\":2037:2044  uint256 */\n      0x00\n        /* \"contracts/1_Storage.sol\":2046:2053  uint256 */\n      dup1\n        /* \"contracts/1_Storage.sol\":2055:2062  uint256 */\n      0x00\n        /* \"contracts/1_Storage.sol\":2064:2077  string memory */\n      0x60\n        /* \"contracts/1_Storage.sol\":2079:2092  string memory */\n      dup1\n        /* \"contracts/1_Storage.sol\":2094:2107  string memory */\n      0x60\n        /* \"contracts/1_Storage.sol\":2109:2116  uint256 */\n      0x00\n        /* \"contracts/1_Storage.sol\":2118:2125  uint256 */\n      dup1\n        /* \"contracts/1_Storage.sol\":2127:2134  uint256 */\n      0x00\n        /* \"contracts/1_Storage.sol\":2146:2157  int256 nlat */\n      dup1\n        /* \"contracts/1_Storage.sol\":288:291  1e8 */\n      0x05f5e100\n        /* \"contracts/1_Storage.sol\":2160:2171  coordinates */\n      0x00\n        /* \"contracts/1_Storage.sol\":2160:2180  coordinates.latitude */\n      dup1\n      add\n      sload\n        /* \"contracts/1_Storage.sol\":2160:2198  coordinates.latitude / LATITUDE_FACTOR */\n      tag_14\n      swap2\n      swap1\n      tag_15\n      jump\t// in\n    tag_14:\n        /* \"contracts/1_Storage.sol\":2146:2198  int256 nlat = coordinates.latitude / LATITUDE_FACTOR */\n      swap1\n      pop\n        /* \"contracts/1_Storage.sol\":2208:2220  int256 nlong */\n      0x00\n        /* \"contracts/1_Storage.sol\":340:343  1e8 */\n      0x05f5e100\n        /* \"contracts/1_Storage.sol\":2223:2234  coordinates */\n      0x00\n        /* \"contracts/1_Storage.sol\":2223:2244  coordinates.longitude */\n      0x01\n      add\n      sload\n        /* \"contracts/1_Storage.sol\":2223:2263  coordinates.longitude / LONGITUDE_FACTOR */\n      tag_16\n      swap2\n      swap1\n      tag_15\n      jump\t// in\n    tag_16:\n        /* \"contracts/1_Storage.sol\":2208:2263  int256 nlong = coordinates.longitude / LONGITUDE_FACTOR */\n      swap1\n      pop\n        /* \"contracts/1_Storage.sol\":2281:2285  nlat */\n      dup2\n        /* \"contracts/1_Storage.sol\":2287:2292  nlong */\n      dup2\n        /* \"contracts/1_Storage.sol\":2294:2305  coordinates */\n      0x00\n        /* \"contracts/1_Storage.sol\":2294:2311  coordinates.time1 */\n      0x02\n      add\n      sload\n        /* \"contracts/1_Storage.sol\":2313:2324  coordinates */\n      0x00\n        /* \"contracts/1_Storage.sol\":2313:2330  coordinates.time2 */\n      0x03\n      add\n      sload\n        /* \"contracts/1_Storage.sol\":2332:2343  coordinates */\n      0x00\n        /* \"contracts/1_Storage.sol\":2332:2349  coordinates.time3 */\n      0x04\n      add\n      sload\n        /* \"contracts/1_Storage.sol\":2351:2362  coordinates */\n      0x00\n        /* \"contracts/1_Storage.sol\":2351:2366  coordinates.ID1 */\n      0x05\n      add\n        /* \"contracts/1_Storage.sol\":2368:2379  coordinates */\n      0x00\n        /* \"contracts/1_Storage.sol\":2368:2383  coordinates.ID2 */\n      0x06\n      add\n        /* \"contracts/1_Storage.sol\":2385:2396  coordinates */\n      0x00\n        /* \"contracts/1_Storage.sol\":2385:2400  coordinates.ID3 */\n      0x07\n      add\n        /* \"contracts/1_Storage.sol\":2402:2413  coordinates */\n      0x00\n        /* \"contracts/1_Storage.sol\":2402:2420  coordinates.speed1 */\n      0x08\n      add\n      sload\n        /* \"contracts/1_Storage.sol\":2422:2433  coordinates */\n      0x00\n        /* \"contracts/1_Storage.sol\":2422:2440  coordinates.speed2 */\n      0x09\n      add\n      sload\n        /* \"contracts/1_Storage.sol\":2442:2453  coordinates */\n      0x00\n        /* \"contracts/1_Storage.sol\":2442:2460  coordinates.speed3 */\n      0x0a\n      add\n      sload\n        /* \"contracts/1_Storage.sol\":2273:2461  return (nlat, nlong, coordinates.time1, coordinates.time2, coordinates.time3, coordinates.ID1, coordinates.ID2, coordinates.ID3, coordinates.speed1, coordinates.speed2, coordinates.speed3) */\n      dup6\n      dup1\n      sload\n      tag_17\n      swap1\n      tag_18\n      jump\t// in\n    tag_17:\n      dup1\n      0x1f\n      add\n      0x20\n      dup1\n      swap2\n      div\n      mul\n      0x20\n      add\n      mload(0x40)\n      swap1\n      dup2\n      add\n      0x40\n      mstore\n      dup1\n      swap3\n      swap2\n      swap1\n      dup2\n      dup2\n      mstore\n      0x20\n      add\n      dup3\n      dup1\n      sload\n      tag_19\n      swap1\n      tag_18\n      jump\t// in\n    tag_19:\n      dup1\n      iszero\n      tag_20\n      jumpi\n      dup1\n      0x1f\n      lt\n      tag_21\n      jumpi\n      0x0100\n      dup1\n      dup4\n      sload\n      div\n      mul\n      dup4\n      mstore\n      swap2\n      0x20\n      add\n      swap2\n      jump(tag_20)\n    tag_21:\n      dup3\n      add\n      swap2\n      swap1\n      0x00\n      mstore\n      keccak256(0x00, 0x20)\n      swap1\n    tag_22:\n      dup2\n      sload\n      dup2\n      mstore\n      swap1\n      0x01\n      add\n      swap1\n      0x20\n      add\n      dup1\n      dup4\n      gt\n      tag_22\n      jumpi\n      dup3\n      swap1\n      sub\n      0x1f\n      and\n      dup3\n      add\n      swap2\n    tag_20:\n      pop\n      pop\n      pop\n      pop\n      pop\n      swap6\n      pop\n      dup5\n      dup1\n      sload\n      tag_23\n      swap1\n      tag_18\n      jump\t// in\n    tag_23:\n      dup1\n      0x1f\n      add\n      0x20\n      dup1\n      swap2\n      div\n      mul\n      0x20\n      add\n      mload(0x40)\n      swap1\n      dup2\n      add\n      0x40\n      mstore\n      dup1\n      swap3\n      swap2\n      swap1\n      dup2\n      dup2\n      mstore\n      0x20\n      add\n      dup3\n      dup1\n      sload\n      tag_24\n      swap1\n      tag_18\n      jump\t// in\n    tag_24:\n      dup1\n      iszero\n      tag_25\n      jumpi\n      dup1\n      0x1f\n      lt\n      tag_26\n      jumpi\n      0x0100\n      dup1\n      dup4\n      sload\n      div\n      mul\n      dup4\n      mstore\n      swap2\n      0x20\n      add\n      swap2\n      jump(tag_25)\n    tag_26:\n      dup3\n      add\n      swap2\n      swap1\n      0x00\n      mstore\n      keccak256(0x00, 0x20)\n      swap1\n    tag_27:\n      dup2\n      sload\n      dup2\n      mstore\n      swap1\n      0x01\n      add\n      swap1\n      0x20\n      add\n      dup1\n      dup4\n      gt\n      tag_27\n      jumpi\n      dup3\n      swap1\n      sub\n      0x1f\n      and\n      dup3\n      add\n      swap2\n    tag_25:\n      pop\n      pop\n      pop\n      pop\n      pop\n      swap5\n      pop\n      dup4\n      dup1\n      sload\n      tag_28\n      swap1\n      tag_18\n      jump\t// in\n    tag_28:\n      dup1\n      0x1f\n      add\n      0x20\n      dup1\n      swap2\n      div\n      mul\n      0x20\n      add\n      mload(0x40)\n      swap1\n      dup2\n      add\n      0x40\n      mstore\n      dup1\n      swap3\n      swap2\n      swap1\n      dup2\n      dup2\n      mstore\n      0x20\n      add\n      dup3\n      dup1\n      sload\n      tag_29\n      swap1\n      tag_18\n      jump\t// in\n    tag_29:\n      dup1\n      iszero\n      tag_30\n      jumpi\n      dup1\n      0x1f\n      lt\n      tag_31\n      jumpi\n      0x0100\n      dup1\n      dup4\n      sload\n      div\n      mul\n      dup4\n      mstore\n      swap2\n      0x20\n      add\n      swap2\n      jump(tag_30)\n    tag_31:\n      dup3\n      add\n      swap2\n      swap1\n      0x00\n      mstore\n      keccak256(0x00, 0x20)\n      swap1\n    tag_32:\n      dup2\n      sload\n      dup2\n      mstore\n      swap1\n      0x01\n      add\n      swap1\n      0x20\n      add\n      dup1\n      dup4\n      gt\n      tag_32\n      jumpi\n      dup3\n      swap1\n      sub\n      0x1f\n      and\n      dup3\n      add\n      swap2\n    tag_30:\n      pop\n      pop\n      pop\n      pop\n      pop\n      swap4\n      pop\n      swap13\n      pop\n      swap13\n      pop\n      swap13\n      pop\n      swap13\n      pop\n      swap13\n      pop\n      swap13\n      pop\n      swap13\n      pop\n      swap13\n      pop\n      swap13\n      pop\n      swap13\n      pop\n      swap13\n      pop\n      pop\n      pop\n        /* \"contracts/1_Storage.sol\":1974:2468  function getCoordinates() public view returns (int256, int256, uint256, uint256, uint256, string memory, string memory, string memory, uint256, uint256, uint256) {... */\n      swap1\n      swap2\n      swap3\n      swap4\n      swap5\n      swap6\n      swap7\n      swap8\n      swap9\n      swap10\n      swap11\n      jump\t// out\n        /* \"contracts/1_Storage.sol\":1159:1812  function storeCoordinates(int256 lat, int256 lon, uint256 _time1, uint256 _time2, uint256 _time3, string memory _ID1, string memory _ID2, string memory _ID3, uint256 _speed1,  uint256 _speed2,  uint256 _speed3) public {... */\n    tag_12:\n        /* \"contracts/1_Storage.sol\":288:291  1e8 */\n      0x05f5e100\n        /* \"contracts/1_Storage.sol\":1410:1413  lat */\n      dup12\n        /* \"contracts/1_Storage.sol\":1410:1431  lat * LATITUDE_FACTOR */\n      tag_34\n      swap2\n      swap1\n      tag_35\n      jump\t// in\n    tag_34:\n        /* \"contracts/1_Storage.sol\":1387:1398  coordinates */\n      0x00\n        /* \"contracts/1_Storage.sol\":1387:1407  coordinates.latitude */\n      dup1\n      add\n        /* \"contracts/1_Storage.sol\":1387:1431  coordinates.latitude = lat * LATITUDE_FACTOR */\n      dup2\n      swap1\n      sstore\n      pop\n        /* \"contracts/1_Storage.sol\":340:343  1e8 */\n      0x05f5e100\n        /* \"contracts/1_Storage.sol\":1465:1468  lon */\n      dup11\n        /* \"contracts/1_Storage.sol\":1465:1487  lon * LONGITUDE_FACTOR */\n      tag_36\n      swap2\n      swap1\n      tag_35\n      jump\t// in\n    tag_36:\n        /* \"contracts/1_Storage.sol\":1441:1452  coordinates */\n      0x00\n        /* \"contracts/1_Storage.sol\":1441:1462  coordinates.longitude */\n      0x01\n      add\n        /* \"contracts/1_Storage.sol\":1441:1487  coordinates.longitude = lon * LONGITUDE_FACTOR */\n      dup2\n      swap1\n      sstore\n      pop\n        /* \"contracts/1_Storage.sol\":1517:1523  _time1 */\n      dup9\n        /* \"contracts/1_Storage.sol\":1497:1508  coordinates */\n      0x00\n        /* \"contracts/1_Storage.sol\":1497:1514  coordinates.time1 */\n      0x02\n      add\n        /* \"contracts/1_Storage.sol\":1497:1523  coordinates.time1 = _time1 */\n      dup2\n      swap1\n      sstore\n      pop\n        /* \"contracts/1_Storage.sol\":1553:1559  _time2 */\n      dup8\n        /* \"contracts/1_Storage.sol\":1533:1544  coordinates */\n      0x00\n        /* \"contracts/1_Storage.sol\":1533:1550  coordinates.time2 */\n      0x03\n      add\n        /* \"contracts/1_Storage.sol\":1533:1559  coordinates.time2 = _time2 */\n      dup2\n      swap1\n      sstore\n      pop\n        /* \"contracts/1_Storage.sol\":1589:1595  _time3 */\n      dup7\n        /* \"contracts/1_Storage.sol\":1569:1580  coordinates */\n      0x00\n        /* \"contracts/1_Storage.sol\":1569:1586  coordinates.time3 */\n      0x04\n      add\n        /* \"contracts/1_Storage.sol\":1569:1595  coordinates.time3 = _time3 */\n      dup2\n      swap1\n      sstore\n      pop\n        /* \"contracts/1_Storage.sol\":1623:1627  _ID1 */\n      dup6\n        /* \"contracts/1_Storage.sol\":1605:1616  coordinates */\n      0x00\n        /* \"contracts/1_Storage.sol\":1605:1620  coordinates.ID1 */\n      0x05\n      add\n        /* \"contracts/1_Storage.sol\":1605:1627  coordinates.ID1 = _ID1 */\n      swap1\n      dup2\n      tag_37\n      swap2\n      swap1\n      tag_38\n      jump\t// in\n    tag_37:\n      pop\n        /* \"contracts/1_Storage.sol\":1655:1659  _ID2 */\n      dup5\n        /* \"contracts/1_Storage.sol\":1637:1648  coordinates */\n      0x00\n        /* \"contracts/1_Storage.sol\":1637:1652  coordinates.ID2 */\n      0x06\n      add\n        /* \"contracts/1_Storage.sol\":1637:1659  coordinates.ID2 = _ID2 */\n      swap1\n      dup2\n      tag_39\n      swap2\n      swap1\n      tag_38\n      jump\t// in\n    tag_39:\n      pop\n        /* \"contracts/1_Storage.sol\":1687:1691  _ID3 */\n      dup4\n        /* \"contracts/1_Storage.sol\":1669:1680  coordinates */\n      0x00\n        /* \"contracts/1_Storage.sol\":1669:1684  coordinates.ID3 */\n      0x07\n      add\n        /* \"contracts/1_Storage.sol\":1669:1691  coordinates.ID3 = _ID3 */\n      swap1\n      dup2\n      tag_40\n      swap2\n      swap1\n      tag_38\n      jump\t// in\n    tag_40:\n      pop\n        /* \"contracts/1_Storage.sol\":1722:1729  _speed1 */\n      dup3\n        /* \"contracts/1_Storage.sol\":1701:1712  coordinates */\n      0x00\n        /* \"contracts/1_Storage.sol\":1701:1719  coordinates.speed1 */\n      0x08\n      add\n        /* \"contracts/1_Storage.sol\":1701:1729  coordinates.speed1 = _speed1 */\n      dup2\n      swap1\n      sstore\n      pop\n        /* \"contracts/1_Storage.sol\":1760:1767  _speed2 */\n      dup2\n        /* \"contracts/1_Storage.sol\":1739:1750  coordinates */\n      0x00\n        /* \"contracts/1_Storage.sol\":1739:1757  coordinates.speed2 */\n      0x09\n      add\n        /* \"contracts/1_Storage.sol\":1739:1767  coordinates.speed2 = _speed2 */\n      dup2\n      swap1\n      sstore\n      pop\n        /* \"contracts/1_Storage.sol\":1798:1805  _speed3 */\n      dup1\n        /* \"contracts/1_Storage.sol\":1777:1788  coordinates */\n      0x00\n        /* \"contracts/1_Storage.sol\":1777:1795  coordinates.speed3 */\n      0x0a\n      add\n        /* \"contracts/1_Storage.sol\":1777:1805  coordinates.speed3 = _speed3 */\n      dup2\n      swap1\n      sstore\n      pop\n        /* \"contracts/1_Storage.sol\":1159:1812  function storeCoordinates(int256 lat, int256 lon, uint256 _time1, uint256 _time2, uint256 _time3, string memory _ID1, string memory _ID2, string memory _ID3, uint256 _speed1,  uint256 _speed2,  uint256 _speed3) public {... */\n      pop\n      pop\n      pop\n      pop\n      pop\n      pop\n      pop\n      pop\n      pop\n      pop\n      pop\n      jump\t// out\n        /* \"#utility.yul\":7:83   */\n    tag_41:\n        /* \"#utility.yul\":43:50   */\n      0x00\n        /* \"#utility.yul\":72:77   */\n      dup2\n        /* \"#utility.yul\":61:77   */\n      swap1\n      pop\n        /* \"#utility.yul\":7:83   */\n      swap2\n      swap1\n      pop\n      jump\t// out\n        /* \"#utility.yul\":89:204   */\n    tag_42:\n        /* \"#utility.yul\":174:197   */\n      tag_87\n        /* \"#utility.yul\":191:196   */\n      dup2\n        /* \"#utility.yul\":174:197   */\n      tag_41\n      jump\t// in\n    tag_87:\n        /* \"#utility.yul\":169:172   */\n      dup3\n        /* \"#utility.yul\":162:198   */\n      mstore\n        /* \"#utility.yul\":89:204   */\n      pop\n      pop\n      jump\t// out\n        /* \"#utility.yul\":210:287   */\n    tag_43:\n        /* \"#utility.yul\":247:254   */\n      0x00\n        /* \"#utility.yul\":276:281   */\n      dup2\n        /* \"#utility.yul\":265:281   */\n      swap1\n      pop\n        /* \"#utility.yul\":210:287   */\n      swap2\n      swap1\n      pop\n      jump\t// out\n        /* \"#utility.yul\":293:411   */\n    tag_44:\n        /* \"#utility.yul\":380:404   */\n      tag_90\n        /* \"#utility.yul\":398:403   */\n      dup2\n        /* \"#utility.yul\":380:404   */\n      tag_43\n      jump\t// in\n    tag_90:\n        /* \"#utility.yul\":375:378   */\n      dup3\n        /* \"#utility.yul\":368:405   */\n      mstore\n        /* \"#utility.yul\":293:411   */\n      pop\n      pop\n      jump\t// out\n        /* \"#utility.yul\":417:516   */\n    tag_45:\n        /* \"#utility.yul\":469:475   */\n      0x00\n        /* \"#utility.yul\":503:508   */\n      dup2\n        /* \"#utility.yul\":497:509   */\n      mload\n        /* \"#utility.yul\":487:509   */\n      swap1\n      pop\n        /* \"#utility.yul\":417:516   */\n      swap2\n      swap1\n      pop\n      jump\t// out\n        /* \"#utility.yul\":522:691   */\n    tag_46:\n        /* \"#utility.yul\":606:617   */\n      0x00\n        /* \"#utility.yul\":640:646   */\n      dup3\n        /* \"#utility.yul\":635:638   */\n      dup3\n        /* \"#utility.yul\":628:647   */\n      mstore\n        /* \"#utility.yul\":680:684   */\n      0x20\n        /* \"#utility.yul\":675:678   */\n      dup3\n        /* \"#utility.yul\":671:685   */\n      add\n        /* \"#utility.yul\":656:685   */\n      swap1\n      pop\n        /* \"#utility.yul\":522:691   */\n      swap3\n      swap2\n      pop\n      pop\n      jump\t// out\n        /* \"#utility.yul\":697:836   */\n    tag_47:\n        /* \"#utility.yul\":786:792   */\n      dup3\n        /* \"#utility.yul\":781:784   */\n      dup2\n        /* \"#utility.yul\":776:779   */\n      dup4\n        /* \"#utility.yul\":770:793   */\n      mcopy\n        /* \"#utility.yul\":827:828   */\n      0x00\n        /* \"#utility.yul\":818:824   */\n      dup4\n        /* \"#utility.yul\":813:816   */\n      dup4\n        /* \"#utility.yul\":809:825   */\n      add\n        /* \"#utility.yul\":802:829   */\n      mstore\n        /* \"#utility.yul\":697:836   */\n      pop\n      pop\n      pop\n      jump\t// out\n        /* \"#utility.yul\":842:944   */\n    tag_48:\n        /* \"#utility.yul\":883:889   */\n      0x00\n        /* \"#utility.yul\":934:936   */\n      0x1f\n        /* \"#utility.yul\":930:937   */\n      not\n        /* \"#utility.yul\":925:927   */\n      0x1f\n        /* \"#utility.yul\":918:923   */\n      dup4\n        /* \"#utility.yul\":914:928   */\n      add\n        /* \"#utility.yul\":910:938   */\n      and\n        /* \"#utility.yul\":900:938   */\n      swap1\n      pop\n        /* \"#utility.yul\":842:944   */\n      swap2\n      swap1\n      pop\n      jump\t// out\n        /* \"#utility.yul\":950:1327   */\n    tag_49:\n        /* \"#utility.yul\":1038:1041   */\n      0x00\n        /* \"#utility.yul\":1066:1105   */\n      tag_96\n        /* \"#utility.yul\":1099:1104   */\n      dup3\n        /* \"#utility.yul\":1066:1105   */\n      tag_45\n      jump\t// in\n    tag_96:\n        /* \"#utility.yul\":1121:1192   */\n      tag_97\n        /* \"#utility.yul\":1185:1191   */\n      dup2\n        /* \"#utility.yul\":1180:1183   */\n      dup6\n        /* \"#utility.yul\":1121:1192   */\n      tag_46\n      jump\t// in\n    tag_97:\n        /* \"#utility.yul\":1114:1192   */\n      swap4\n      pop\n        /* \"#utility.yul\":1201:1266   */\n      tag_98\n        /* \"#utility.yul\":1259:1265   */\n      dup2\n        /* \"#utility.yul\":1254:1257   */\n      dup6\n        /* \"#utility.yul\":1247:1251   */\n      0x20\n        /* \"#utility.yul\":1240:1245   */\n      dup7\n        /* \"#utility.yul\":1236:1252   */\n      add\n        /* \"#utility.yul\":1201:1266   */\n      tag_47\n      jump\t// in\n    tag_98:\n        /* \"#utility.yul\":1291:1320   */\n      tag_99\n        /* \"#utility.yul\":1313:1319   */\n      dup2\n        /* \"#utility.yul\":1291:1320   */\n      tag_48\n      jump\t// in\n    tag_99:\n        /* \"#utility.yul\":1286:1289   */\n      dup5\n        /* \"#utility.yul\":1282:1321   */\n      add\n        /* \"#utility.yul\":1275:1321   */\n      swap2\n      pop\n        /* \"#utility.yul\":1042:1327   */\n      pop\n        /* \"#utility.yul\":950:1327   */\n      swap3\n      swap2\n      pop\n      pop\n      jump\t// out\n        /* \"#utility.yul\":1333:2930   */\n    tag_8:\n        /* \"#utility.yul\":1763:1767   */\n      0x00\n        /* \"#utility.yul\":1801:1804   */\n      0x0160\n        /* \"#utility.yul\":1790:1799   */\n      dup3\n        /* \"#utility.yul\":1786:1805   */\n      add\n        /* \"#utility.yul\":1778:1805   */\n      swap1\n      pop\n        /* \"#utility.yul\":1815:1884   */\n      tag_101\n        /* \"#utility.yul\":1881:1882   */\n      0x00\n        /* \"#utility.yul\":1870:1879   */\n      dup4\n        /* \"#utility.yul\":1866:1883   */\n      add\n        /* \"#utility.yul\":1857:1863   */\n      dup15\n        /* \"#utility.yul\":1815:1884   */\n      tag_42\n      jump\t// in\n    tag_101:\n        /* \"#utility.yul\":1894:1964   */\n      tag_102\n        /* \"#utility.yul\":1960:1962   */\n      0x20\n        /* \"#utility.yul\":1949:1958   */\n      dup4\n        /* \"#utility.yul\":1945:1963   */\n      add\n        /* \"#utility.yul\":1936:1942   */\n      dup14\n        /* \"#utility.yul\":1894:1964   */\n      tag_42\n      jump\t// in\n    tag_102:\n        /* \"#utility.yul\":1974:2046   */\n      tag_103\n        /* \"#utility.yul\":2042:2044   */\n      0x40\n        /* \"#utility.yul\":2031:2040   */\n      dup4\n        /* \"#utility.yul\":2027:2045   */\n      add\n        /* \"#utility.yul\":2018:2024   */\n      dup13\n        /* \"#utility.yul\":1974:2046   */\n      tag_44\n      jump\t// in\n    tag_103:\n        /* \"#utility.yul\":2056:2128   */\n      tag_104\n        /* \"#utility.yul\":2124:2126   */\n      0x60\n        /* \"#utility.yul\":2113:2122   */\n      dup4\n        /* \"#utility.yul\":2109:2127   */\n      add\n        /* \"#utility.yul\":2100:2106   */\n      dup12\n        /* \"#utility.yul\":2056:2128   */\n      tag_44\n      jump\t// in\n    tag_104:\n        /* \"#utility.yul\":2138:2211   */\n      tag_105\n        /* \"#utility.yul\":2206:2209   */\n      0x80\n        /* \"#utility.yul\":2195:2204   */\n      dup4\n        /* \"#utility.yul\":2191:2210   */\n      add\n        /* \"#utility.yul\":2182:2188   */\n      dup11\n        /* \"#utility.yul\":2138:2211   */\n      tag_44\n      jump\t// in\n    tag_105:\n        /* \"#utility.yul\":2259:2268   */\n      dup2\n        /* \"#utility.yul\":2253:2257   */\n      dup2\n        /* \"#utility.yul\":2249:2269   */\n      sub\n        /* \"#utility.yul\":2243:2246   */\n      0xa0\n        /* \"#utility.yul\":2232:2241   */\n      dup4\n        /* \"#utility.yul\":2228:2247   */\n      add\n        /* \"#utility.yul\":2221:2270   */\n      mstore\n        /* \"#utility.yul\":2287:2365   */\n      tag_106\n        /* \"#utility.yul\":2360:2364   */\n      dup2\n        /* \"#utility.yul\":2351:2357   */\n      dup10\n        /* \"#utility.yul\":2287:2365   */\n      tag_49\n      jump\t// in\n    tag_106:\n        /* \"#utility.yul\":2279:2365   */\n      swap1\n      pop\n        /* \"#utility.yul\":2413:2422   */\n      dup2\n        /* \"#utility.yul\":2407:2411   */\n      dup2\n        /* \"#utility.yul\":2403:2423   */\n      sub\n        /* \"#utility.yul\":2397:2400   */\n      0xc0\n        /* \"#utility.yul\":2386:2395   */\n      dup4\n        /* \"#utility.yul\":2382:2401   */\n      add\n        /* \"#utility.yul\":2375:2424   */\n      mstore\n        /* \"#utility.yul\":2441:2519   */\n      tag_107\n        /* \"#utility.yul\":2514:2518   */\n      dup2\n        /* \"#utility.yul\":2505:2511   */\n      dup9\n        /* \"#utility.yul\":2441:2519   */\n      tag_49\n      jump\t// in\n    tag_107:\n        /* \"#utility.yul\":2433:2519   */\n      swap1\n      pop\n        /* \"#utility.yul\":2567:2576   */\n      dup2\n        /* \"#utility.yul\":2561:2565   */\n      dup2\n        /* \"#utility.yul\":2557:2577   */\n      sub\n        /* \"#utility.yul\":2551:2554   */\n      0xe0\n        /* \"#utility.yul\":2540:2549   */\n      dup4\n        /* \"#utility.yul\":2536:2555   */\n      add\n        /* \"#utility.yul\":2529:2578   */\n      mstore\n        /* \"#utility.yul\":2595:2673   */\n      tag_108\n        /* \"#utility.yul\":2668:2672   */\n      dup2\n        /* \"#utility.yul\":2659:2665   */\n      dup8\n        /* \"#utility.yul\":2595:2673   */\n      tag_49\n      jump\t// in\n    tag_108:\n        /* \"#utility.yul\":2587:2673   */\n      swap1\n      pop\n        /* \"#utility.yul\":2683:2756   */\n      tag_109\n        /* \"#utility.yul\":2751:2754   */\n      0x0100\n        /* \"#utility.yul\":2740:2749   */\n      dup4\n        /* \"#utility.yul\":2736:2755   */\n      add\n        /* \"#utility.yul\":2727:2733   */\n      dup7\n        /* \"#utility.yul\":2683:2756   */\n      tag_44\n      jump\t// in\n    tag_109:\n        /* \"#utility.yul\":2766:2839   */\n      tag_110\n        /* \"#utility.yul\":2834:2837   */\n      0x0120\n        /* \"#utility.yul\":2823:2832   */\n      dup4\n        /* \"#utility.yul\":2819:2838   */\n      add\n        /* \"#utility.yul\":2810:2816   */\n      dup6\n        /* \"#utility.yul\":2766:2839   */\n      tag_44\n      jump\t// in\n    tag_110:\n        /* \"#utility.yul\":2849:2923   */\n      tag_111\n        /* \"#utility.yul\":2918:2921   */\n      0x0140\n        /* \"#utility.yul\":2907:2916   */\n      dup4\n        /* \"#utility.yul\":2903:2922   */\n      add\n        /* \"#utility.yul\":2893:2900   */\n      dup5\n        /* \"#utility.yul\":2849:2923   */\n      tag_44\n      jump\t// in\n    tag_111:\n        /* \"#utility.yul\":1333:2930   */\n      swap13\n      swap12\n      pop\n      pop\n      pop\n      pop\n      pop\n      pop\n      pop\n      pop\n      pop\n      pop\n      pop\n      pop\n      jump\t// out\n        /* \"#utility.yul\":2936:3011   */\n    tag_50:\n        /* \"#utility.yul\":2969:2975   */\n      0x00\n        /* \"#utility.yul\":3002:3004   */\n      0x40\n        /* \"#utility.yul\":2996:3005   */\n      mload\n        /* \"#utility.yul\":2986:3005   */\n      swap1\n      pop\n        /* \"#utility.yul\":2936:3011   */\n      swap1\n      jump\t// out\n        /* \"#utility.yul\":3017:3134   */\n    tag_51:\n        /* \"#utility.yul\":3126:3127   */\n      0x00\n        /* \"#utility.yul\":3123:3124   */\n      dup1\n        /* \"#utility.yul\":3116:3128   */\n      revert\n        /* \"#utility.yul\":3140:3257   */\n    tag_52:\n        /* \"#utility.yul\":3249:3250   */\n      0x00\n        /* \"#utility.yul\":3246:3247   */\n      dup1\n        /* \"#utility.yul\":3239:3251   */\n      revert\n        /* \"#utility.yul\":3263:3383   */\n    tag_53:\n        /* \"#utility.yul\":3335:3358   */\n      tag_116\n        /* \"#utility.yul\":3352:3357   */\n      dup2\n        /* \"#utility.yul\":3335:3358   */\n      tag_41\n      jump\t// in\n    tag_116:\n        /* \"#utility.yul\":3328:3333   */\n      dup2\n        /* \"#utility.yul\":3325:3359   */\n      eq\n        /* \"#utility.yul\":3315:3377   */\n      tag_117\n      jumpi\n        /* \"#utility.yul\":3373:3374   */\n      0x00\n        /* \"#utility.yul\":3370:3371   */\n      dup1\n        /* \"#utility.yul\":3363:3375   */\n      revert\n        /* \"#utility.yul\":3315:3377   */\n    tag_117:\n        /* \"#utility.yul\":3263:3383   */\n      pop\n      jump\t// out\n        /* \"#utility.yul\":3389:3526   */\n    tag_54:\n        /* \"#utility.yul\":3434:3439   */\n      0x00\n        /* \"#utility.yul\":3472:3478   */\n      dup2\n        /* \"#utility.yul\":3459:3479   */\n      calldataload\n        /* \"#utility.yul\":3450:3479   */\n      swap1\n      pop\n        /* \"#utility.yul\":3488:3520   */\n      tag_119\n        /* \"#utility.yul\":3514:3519   */\n      dup2\n        /* \"#utility.yul\":3488:3520   */\n      tag_53\n      jump\t// in\n    tag_119:\n        /* \"#utility.yul\":3389:3526   */\n      swap3\n      swap2\n      pop\n      pop\n      jump\t// out\n        /* \"#utility.yul\":3532:3654   */\n    tag_55:\n        /* \"#utility.yul\":3605:3629   */\n      tag_121\n        /* \"#utility.yul\":3623:3628   */\n      dup2\n        /* \"#utility.yul\":3605:3629   */\n      tag_43\n      jump\t// in\n    tag_121:\n        /* \"#utility.yul\":3598:3603   */\n      dup2\n        /* \"#utility.yul\":3595:3630   */\n      eq\n        /* \"#utility.yul\":3585:3648   */\n      tag_122\n      jumpi\n        /* \"#utility.yul\":3644:3645   */\n      0x00\n        /* \"#utility.yul\":3641:3642   */\n      dup1\n        /* \"#utility.yul\":3634:3646   */\n      revert\n        /* \"#utility.yul\":3585:3648   */\n    tag_122:\n        /* \"#utility.yul\":3532:3654   */\n      pop\n      jump\t// out\n        /* \"#utility.yul\":3660:3799   */\n    tag_56:\n        /* \"#utility.yul\":3706:3711   */\n      0x00\n        /* \"#utility.yul\":3744:3750   */\n      dup2\n        /* \"#utility.yul\":3731:3751   */\n      calldataload\n        /* \"#utility.yul\":3722:3751   */\n      swap1\n      pop\n        /* \"#utility.yul\":3760:3793   */\n      tag_124\n        /* \"#utility.yul\":3787:3792   */\n      dup2\n        /* \"#utility.yul\":3760:3793   */\n      tag_55\n      jump\t// in\n    tag_124:\n        /* \"#utility.yul\":3660:3799   */\n      swap3\n      swap2\n      pop\n      pop\n      jump\t// out\n        /* \"#utility.yul\":3805:3922   */\n    tag_57:\n        /* \"#utility.yul\":3914:3915   */\n      0x00\n        /* \"#utility.yul\":3911:3912   */\n      dup1\n        /* \"#utility.yul\":3904:3916   */\n      revert\n        /* \"#utility.yul\":3928:4045   */\n    tag_58:\n        /* \"#utility.yul\":4037:4038   */\n      0x00\n        /* \"#utility.yul\":4034:4035   */\n      dup1\n        /* \"#utility.yul\":4027:4039   */\n      revert\n        /* \"#utility.yul\":4051:4231   */\n    tag_59:\n        /* \"#utility.yul\":4099:4176   */\n      0x4e487b7100000000000000000000000000000000000000000000000000000000\n        /* \"#utility.yul\":4096:4097   */\n      0x00\n        /* \"#utility.yul\":4089:4177   */\n      mstore\n        /* \"#utility.yul\":4196:4200   */\n      0x41\n        /* \"#utility.yul\":4193:4194   */\n      0x04\n        /* \"#utility.yul\":4186:4201   */\n      mstore\n        /* \"#utility.yul\":4220:4224   */\n      0x24\n        /* \"#utility.yul\":4217:4218   */\n      0x00\n        /* \"#utility.yul\":4210:4225   */\n      revert\n        /* \"#utility.yul\":4237:4518   */\n    tag_60:\n        /* \"#utility.yul\":4320:4347   */\n      tag_129\n        /* \"#utility.yul\":4342:4346   */\n      dup3\n        /* \"#utility.yul\":4320:4347   */\n      tag_48\n      jump\t// in\n    tag_129:\n        /* \"#utility.yul\":4312:4318   */\n      dup2\n        /* \"#utility.yul\":4308:4348   */\n      add\n        /* \"#utility.yul\":4450:4456   */\n      dup2\n        /* \"#utility.yul\":4438:4448   */\n      dup2\n        /* \"#utility.yul\":4435:4457   */\n      lt\n        /* \"#utility.yul\":4414:4432   */\n      0xffffffffffffffff\n        /* \"#utility.yul\":4402:4412   */\n      dup3\n        /* \"#utility.yul\":4399:4433   */\n      gt\n        /* \"#utility.yul\":4396:4458   */\n      or\n        /* \"#utility.yul\":4393:4481   */\n      iszero\n      tag_130\n      jumpi\n        /* \"#utility.yul\":4461:4479   */\n      tag_131\n      tag_59\n      jump\t// in\n    tag_131:\n        /* \"#utility.yul\":4393:4481   */\n    tag_130:\n        /* \"#utility.yul\":4501:4511   */\n      dup1\n        /* \"#utility.yul\":4497:4499   */\n      0x40\n        /* \"#utility.yul\":4490:4512   */\n      mstore\n        /* \"#utility.yul\":4280:4518   */\n      pop\n        /* \"#utility.yul\":4237:4518   */\n      pop\n      pop\n      jump\t// out\n        /* \"#utility.yul\":4524:4653   */\n    tag_61:\n        /* \"#utility.yul\":4558:4564   */\n      0x00\n        /* \"#utility.yul\":4585:4605   */\n      tag_133\n      tag_50\n      jump\t// in\n    tag_133:\n        /* \"#utility.yul\":4575:4605   */\n      swap1\n      pop\n        /* \"#utility.yul\":4614:4647   */\n      tag_134\n        /* \"#utility.yul\":4642:4646   */\n      dup3\n        /* \"#utility.yul\":4634:4640   */\n      dup3\n        /* \"#utility.yul\":4614:4647   */\n      tag_60\n      jump\t// in\n    tag_134:\n        /* \"#utility.yul\":4524:4653   */\n      swap2\n      swap1\n      pop\n      jump\t// out\n        /* \"#utility.yul\":4659:4967   */\n    tag_62:\n        /* \"#utility.yul\":4721:4725   */\n      0x00\n        /* \"#utility.yul\":4811:4829   */\n      0xffffffffffffffff\n        /* \"#utility.yul\":4803:4809   */\n      dup3\n        /* \"#utility.yul\":4800:4830   */\n      gt\n        /* \"#utility.yul\":4797:4853   */\n      iszero\n      tag_136\n      jumpi\n        /* \"#utility.yul\":4833:4851   */\n      tag_137\n      tag_59\n      jump\t// in\n    tag_137:\n        /* \"#utility.yul\":4797:4853   */\n    tag_136:\n        /* \"#utility.yul\":4871:4900   */\n      tag_138\n        /* \"#utility.yul\":4893:4899   */\n      dup3\n        /* \"#utility.yul\":4871:4900   */\n      tag_48\n      jump\t// in\n    tag_138:\n        /* \"#utility.yul\":4863:4900   */\n      swap1\n      pop\n        /* \"#utility.yul\":4955:4959   */\n      0x20\n        /* \"#utility.yul\":4949:4953   */\n      dup2\n        /* \"#utility.yul\":4945:4960   */\n      add\n        /* \"#utility.yul\":4937:4960   */\n      swap1\n      pop\n        /* \"#utility.yul\":4659:4967   */\n      swap2\n      swap1\n      pop\n      jump\t// out\n        /* \"#utility.yul\":4973:5121   */\n    tag_63:\n        /* \"#utility.yul\":5071:5077   */\n      dup3\n        /* \"#utility.yul\":5066:5069   */\n      dup2\n        /* \"#utility.yul\":5061:5064   */\n      dup4\n        /* \"#utility.yul\":5048:5078   */\n      calldatacopy\n        /* \"#utility.yul\":5112:5113   */\n      0x00\n        /* \"#utility.yul\":5103:5109   */\n      dup4\n        /* \"#utility.yul\":5098:5101   */\n      dup4\n        /* \"#utility.yul\":5094:5110   */\n      add\n        /* \"#utility.yul\":5087:5114   */\n      mstore\n        /* \"#utility.yul\":4973:5121   */\n      pop\n      pop\n      pop\n      jump\t// out\n        /* \"#utility.yul\":5127:5552   */\n    tag_64:\n        /* \"#utility.yul\":5205:5210   */\n      0x00\n        /* \"#utility.yul\":5230:5296   */\n      tag_141\n        /* \"#utility.yul\":5246:5295   */\n      tag_142\n        /* \"#utility.yul\":5288:5294   */\n      dup5\n        /* \"#utility.yul\":5246:5295   */\n      tag_62\n      jump\t// in\n    tag_142:\n        /* \"#utility.yul\":5230:5296   */\n      tag_61\n      jump\t// in\n    tag_141:\n        /* \"#utility.yul\":5221:5296   */\n      swap1\n      pop\n        /* \"#utility.yul\":5319:5325   */\n      dup3\n        /* \"#utility.yul\":5312:5317   */\n      dup2\n        /* \"#utility.yul\":5305:5326   */\n      mstore\n        /* \"#utility.yul\":5357:5361   */\n      0x20\n        /* \"#utility.yul\":5350:5355   */\n      dup2\n        /* \"#utility.yul\":5346:5362   */\n      add\n        /* \"#utility.yul\":5395:5398   */\n      dup5\n        /* \"#utility.yul\":5386:5392   */\n      dup5\n        /* \"#utility.yul\":5381:5384   */\n      dup5\n        /* \"#utility.yul\":5377:5393   */\n      add\n        /* \"#utility.yul\":5374:5399   */\n      gt\n        /* \"#utility.yul\":5371:5483   */\n      iszero\n      tag_143\n      jumpi\n        /* \"#utility.yul\":5402:5481   */\n      tag_144\n      tag_58\n      jump\t// in\n    tag_144:\n        /* \"#utility.yul\":5371:5483   */\n    tag_143:\n        /* \"#utility.yul\":5492:5546   */\n      tag_145\n        /* \"#utility.yul\":5539:5545   */\n      dup5\n        /* \"#utility.yul\":5534:5537   */\n      dup3\n        /* \"#utility.yul\":5529:5532   */\n      dup6\n        /* \"#utility.yul\":5492:5546   */\n      tag_63\n      jump\t// in\n    tag_145:\n        /* \"#utility.yul\":5211:5552   */\n      pop\n        /* \"#utility.yul\":5127:5552   */\n      swap4\n      swap3\n      pop\n      pop\n      pop\n      jump\t// out\n        /* \"#utility.yul\":5572:5912   */\n    tag_65:\n        /* \"#utility.yul\":5628:5633   */\n      0x00\n        /* \"#utility.yul\":5677:5680   */\n      dup3\n        /* \"#utility.yul\":5670:5674   */\n      0x1f\n        /* \"#utility.yul\":5662:5668   */\n      dup4\n        /* \"#utility.yul\":5658:5675   */\n      add\n        /* \"#utility.yul\":5654:5681   */\n      slt\n        /* \"#utility.yul\":5644:5766   */\n      tag_147\n      jumpi\n        /* \"#utility.yul\":5685:5764   */\n      tag_148\n      tag_57\n      jump\t// in\n    tag_148:\n        /* \"#utility.yul\":5644:5766   */\n    tag_147:\n        /* \"#utility.yul\":5802:5808   */\n      dup2\n        /* \"#utility.yul\":5789:5809   */\n      calldataload\n        /* \"#utility.yul\":5827:5906   */\n      tag_149\n        /* \"#utility.yul\":5902:5905   */\n      dup5\n        /* \"#utility.yul\":5894:5900   */\n      dup3\n        /* \"#utility.yul\":5887:5891   */\n      0x20\n        /* \"#utility.yul\":5879:5885   */\n      dup7\n        /* \"#utility.yul\":5875:5892   */\n      add\n        /* \"#utility.yul\":5827:5906   */\n      tag_64\n      jump\t// in\n    tag_149:\n        /* \"#utility.yul\":5818:5906   */\n      swap2\n      pop\n        /* \"#utility.yul\":5634:5912   */\n      pop\n        /* \"#utility.yul\":5572:5912   */\n      swap3\n      swap2\n      pop\n      pop\n      jump\t// out\n        /* \"#utility.yul\":5918:8243   */\n    tag_11:\n        /* \"#utility.yul\":6095:6101   */\n      0x00\n        /* \"#utility.yul\":6103:6109   */\n      dup1\n        /* \"#utility.yul\":6111:6117   */\n      0x00\n        /* \"#utility.yul\":6119:6125   */\n      dup1\n        /* \"#utility.yul\":6127:6133   */\n      0x00\n        /* \"#utility.yul\":6135:6141   */\n      dup1\n        /* \"#utility.yul\":6143:6149   */\n      0x00\n        /* \"#utility.yul\":6151:6157   */\n      dup1\n        /* \"#utility.yul\":6159:6165   */\n      0x00\n        /* \"#utility.yul\":6167:6173   */\n      dup1\n        /* \"#utility.yul\":6175:6182   */\n      0x00\n        /* \"#utility.yul\":6225:6228   */\n      0x0160\n        /* \"#utility.yul\":6213:6222   */\n      dup13\n        /* \"#utility.yul\":6204:6211   */\n      dup15\n        /* \"#utility.yul\":6200:6223   */\n      sub\n        /* \"#utility.yul\":6196:6229   */\n      slt\n        /* \"#utility.yul\":6193:6313   */\n      iszero\n      tag_151\n      jumpi\n        /* \"#utility.yul\":6232:6311   */\n      tag_152\n      tag_51\n      jump\t// in\n    tag_152:\n        /* \"#utility.yul\":6193:6313   */\n    tag_151:\n        /* \"#utility.yul\":6352:6353   */\n      0x00\n        /* \"#utility.yul\":6377:6429   */\n      tag_153\n        /* \"#utility.yul\":6421:6428   */\n      dup15\n        /* \"#utility.yul\":6412:6418   */\n      dup3\n        /* \"#utility.yul\":6401:6410   */\n      dup16\n        /* \"#utility.yul\":6397:6419   */\n      add\n        /* \"#utility.yul\":6377:6429   */\n      tag_54\n      jump\t// in\n    tag_153:\n        /* \"#utility.yul\":6367:6429   */\n      swap12\n      pop\n        /* \"#utility.yul\":6323:6439   */\n      pop\n        /* \"#utility.yul\":6478:6480   */\n      0x20\n        /* \"#utility.yul\":6504:6556   */\n      tag_154\n        /* \"#utility.yul\":6548:6555   */\n      dup15\n        /* \"#utility.yul\":6539:6545   */\n      dup3\n        /* \"#utility.yul\":6528:6537   */\n      dup16\n        /* \"#utility.yul\":6524:6546   */\n      add\n        /* \"#utility.yul\":6504:6556   */\n      tag_54\n      jump\t// in\n    tag_154:\n        /* \"#utility.yul\":6494:6556   */\n      swap11\n      pop\n        /* \"#utility.yul\":6449:6566   */\n      pop\n        /* \"#utility.yul\":6605:6607   */\n      0x40\n        /* \"#utility.yul\":6631:6684   */\n      tag_155\n        /* \"#utility.yul\":6676:6683   */\n      dup15\n        /* \"#utility.yul\":6667:6673   */\n      dup3\n        /* \"#utility.yul\":6656:6665   */\n      dup16\n        /* \"#utility.yul\":6652:6674   */\n      add\n        /* \"#utility.yul\":6631:6684   */\n      tag_56\n      jump\t// in\n    tag_155:\n        /* \"#utility.yul\":6621:6684   */\n      swap10\n      pop\n        /* \"#utility.yul\":6576:6694   */\n      pop\n        /* \"#utility.yul\":6733:6735   */\n      0x60\n        /* \"#utility.yul\":6759:6812   */\n      tag_156\n        /* \"#utility.yul\":6804:6811   */\n      dup15\n        /* \"#utility.yul\":6795:6801   */\n      dup3\n        /* \"#utility.yul\":6784:6793   */\n      dup16\n        /* \"#utility.yul\":6780:6802   */\n      add\n        /* \"#utility.yul\":6759:6812   */\n      tag_56\n      jump\t// in\n    tag_156:\n        /* \"#utility.yul\":6749:6812   */\n      swap9\n      pop\n        /* \"#utility.yul\":6704:6822   */\n      pop\n        /* \"#utility.yul\":6861:6864   */\n      0x80\n        /* \"#utility.yul\":6888:6941   */\n      tag_157\n        /* \"#utility.yul\":6933:6940   */\n      dup15\n        /* \"#utility.yul\":6924:6930   */\n      dup3\n        /* \"#utility.yul\":6913:6922   */\n      dup16\n        /* \"#utility.yul\":6909:6931   */\n      add\n        /* \"#utility.yul\":6888:6941   */\n      tag_56\n      jump\t// in\n    tag_157:\n        /* \"#utility.yul\":6878:6941   */\n      swap8\n      pop\n        /* \"#utility.yul\":6832:6951   */\n      pop\n        /* \"#utility.yul\":7018:7021   */\n      0xa0\n        /* \"#utility.yul\":7007:7016   */\n      dup13\n        /* \"#utility.yul\":7003:7022   */\n      add\n        /* \"#utility.yul\":6990:7023   */\n      calldataload\n        /* \"#utility.yul\":7050:7068   */\n      0xffffffffffffffff\n        /* \"#utility.yul\":7042:7048   */\n      dup2\n        /* \"#utility.yul\":7039:7069   */\n      gt\n        /* \"#utility.yul\":7036:7153   */\n      iszero\n      tag_158\n      jumpi\n        /* \"#utility.yul\":7072:7151   */\n      tag_159\n      tag_52\n      jump\t// in\n    tag_159:\n        /* \"#utility.yul\":7036:7153   */\n    tag_158:\n        /* \"#utility.yul\":7177:7240   */\n      tag_160\n        /* \"#utility.yul\":7232:7239   */\n      dup15\n        /* \"#utility.yul\":7223:7229   */\n      dup3\n        /* \"#utility.yul\":7212:7221   */\n      dup16\n        /* \"#utility.yul\":7208:7230   */\n      add\n        /* \"#utility.yul\":7177:7240   */\n      tag_65\n      jump\t// in\n    tag_160:\n        /* \"#utility.yul\":7167:7240   */\n      swap7\n      pop\n        /* \"#utility.yul\":6961:7250   */\n      pop\n        /* \"#utility.yul\":7317:7320   */\n      0xc0\n        /* \"#utility.yul\":7306:7315   */\n      dup13\n        /* \"#utility.yul\":7302:7321   */\n      add\n        /* \"#utility.yul\":7289:7322   */\n      calldataload\n        /* \"#utility.yul\":7349:7367   */\n      0xffffffffffffffff\n        /* \"#utility.yul\":7341:7347   */\n      dup2\n        /* \"#utility.yul\":7338:7368   */\n      gt\n        /* \"#utility.yul\":7335:7452   */\n      iszero\n      tag_161\n      jumpi\n        /* \"#utility.yul\":7371:7450   */\n      tag_162\n      tag_52\n      jump\t// in\n    tag_162:\n        /* \"#utility.yul\":7335:7452   */\n    tag_161:\n        /* \"#utility.yul\":7476:7539   */\n      tag_163\n        /* \"#utility.yul\":7531:7538   */\n      dup15\n        /* \"#utility.yul\":7522:7528   */\n      dup3\n        /* \"#utility.yul\":7511:7520   */\n      dup16\n        /* \"#utility.yul\":7507:7529   */\n      add\n        /* \"#utility.yul\":7476:7539   */\n      tag_65\n      jump\t// in\n    tag_163:\n        /* \"#utility.yul\":7466:7539   */\n      swap6\n      pop\n        /* \"#utility.yul\":7260:7549   */\n      pop\n        /* \"#utility.yul\":7616:7619   */\n      0xe0\n        /* \"#utility.yul\":7605:7614   */\n      dup13\n        /* \"#utility.yul\":7601:7620   */\n      add\n        /* \"#utility.yul\":7588:7621   */\n      calldataload\n        /* \"#utility.yul\":7648:7666   */\n      0xffffffffffffffff\n        /* \"#utility.yul\":7640:7646   */\n      dup2\n        /* \"#utility.yul\":7637:7667   */\n      gt\n        /* \"#utility.yul\":7634:7751   */\n      iszero\n      tag_164\n      jumpi\n        /* \"#utility.yul\":7670:7749   */\n      tag_165\n      tag_52\n      jump\t// in\n    tag_165:\n        /* \"#utility.yul\":7634:7751   */\n    tag_164:\n        /* \"#utility.yul\":7775:7838   */\n      tag_166\n        /* \"#utility.yul\":7830:7837   */\n      dup15\n        /* \"#utility.yul\":7821:7827   */\n      dup3\n        /* \"#utility.yul\":7810:7819   */\n      dup16\n        /* \"#utility.yul\":7806:7828   */\n      add\n        /* \"#utility.yul\":7775:7838   */\n      tag_65\n      jump\t// in\n    tag_166:\n        /* \"#utility.yul\":7765:7838   */\n      swap5\n      pop\n        /* \"#utility.yul\":7559:7848   */\n      pop\n        /* \"#utility.yul\":7887:7890   */\n      0x0100\n        /* \"#utility.yul\":7914:7967   */\n      tag_167\n        /* \"#utility.yul\":7959:7966   */\n      dup15\n        /* \"#utility.yul\":7950:7956   */\n      dup3\n        /* \"#utility.yul\":7939:7948   */\n      dup16\n        /* \"#utility.yul\":7935:7957   */\n      add\n        /* \"#utility.yul\":7914:7967   */\n      tag_56\n      jump\t// in\n    tag_167:\n        /* \"#utility.yul\":7904:7967   */\n      swap4\n      pop\n        /* \"#utility.yul\":7858:7977   */\n      pop\n        /* \"#utility.yul\":8016:8019   */\n      0x0120\n        /* \"#utility.yul\":8043:8096   */\n      tag_168\n        /* \"#utility.yul\":8088:8095   */\n      dup15\n        /* \"#utility.yul\":8079:8085   */\n      dup3\n        /* \"#utility.yul\":8068:8077   */\n      dup16\n        /* \"#utility.yul\":8064:8086   */\n      add\n        /* \"#utility.yul\":8043:8096   */\n      tag_56\n      jump\t// in\n    tag_168:\n        /* \"#utility.yul\":8033:8096   */\n      swap3\n      pop\n        /* \"#utility.yul\":7987:8106   */\n      pop\n        /* \"#utility.yul\":8145:8148   */\n      0x0140\n        /* \"#utility.yul\":8173:8226   */\n      tag_169\n        /* \"#utility.yul\":8218:8225   */\n      dup15\n        /* \"#utility.yul\":8209:8215   */\n      dup3\n        /* \"#utility.yul\":8198:8207   */\n      dup16\n        /* \"#utility.yul\":8194:8216   */\n      add\n        /* \"#utility.yul\":8173:8226   */\n      tag_56\n      jump\t// in\n    tag_169:\n        /* \"#utility.yul\":8162:8226   */\n      swap2\n      pop\n        /* \"#utility.yul\":8116:8236   */\n      pop\n        /* \"#utility.yul\":5918:8243   */\n      swap3\n      swap6\n      swap9\n      swap12\n      pop\n      swap3\n      swap6\n      swap9\n      swap12\n      swap1\n      swap4\n      swap7\n      swap10\n      pop\n      jump\t// out\n        /* \"#utility.yul\":8249:8429   */\n    tag_66:\n        /* \"#utility.yul\":8297:8374   */\n      0x4e487b7100000000000000000000000000000000000000000000000000000000\n        /* \"#utility.yul\":8294:8295   */\n      0x00\n        /* \"#utility.yul\":8287:8375   */\n      mstore\n        /* \"#utility.yul\":8394:8398   */\n      0x12\n        /* \"#utility.yul\":8391:8392   */\n      0x04\n        /* \"#utility.yul\":8384:8399   */\n      mstore\n        /* \"#utility.yul\":8418:8422   */\n      0x24\n        /* \"#utility.yul\":8415:8416   */\n      0x00\n        /* \"#utility.yul\":8408:8423   */\n      revert\n        /* \"#utility.yul\":8435:8615   */\n    tag_67:\n        /* \"#utility.yul\":8483:8560   */\n      0x4e487b7100000000000000000000000000000000000000000000000000000000\n        /* \"#utility.yul\":8480:8481   */\n      0x00\n        /* \"#utility.yul\":8473:8561   */\n      mstore\n        /* \"#utility.yul\":8580:8584   */\n      0x11\n        /* \"#utility.yul\":8577:8578   */\n      0x04\n        /* \"#utility.yul\":8570:8585   */\n      mstore\n        /* \"#utility.yul\":8604:8608   */\n      0x24\n        /* \"#utility.yul\":8601:8602   */\n      0x00\n        /* \"#utility.yul\":8594:8609   */\n      revert\n        /* \"#utility.yul\":8621:9006   */\n    tag_15:\n        /* \"#utility.yul\":8660:8661   */\n      0x00\n        /* \"#utility.yul\":8677:8696   */\n      tag_173\n        /* \"#utility.yul\":8694:8695   */\n      dup3\n        /* \"#utility.yul\":8677:8696   */\n      tag_41\n      jump\t// in\n    tag_173:\n        /* \"#utility.yul\":8672:8696   */\n      swap2\n      pop\n        /* \"#utility.yul\":8710:8729   */\n      tag_174\n        /* \"#utility.yul\":8727:8728   */\n      dup4\n        /* \"#utility.yul\":8710:8729   */\n      tag_41\n      jump\t// in\n    tag_174:\n        /* \"#utility.yul\":8705:8729   */\n      swap3\n      pop\n        /* \"#utility.yul\":8748:8749   */\n      dup3\n        /* \"#utility.yul\":8738:8773   */\n      tag_175\n      jumpi\n        /* \"#utility.yul\":8753:8771   */\n      tag_176\n      tag_66\n      jump\t// in\n    tag_176:\n        /* \"#utility.yul\":8738:8773   */\n    tag_175:\n        /* \"#utility.yul\":8939:8940   */\n      0x01\n        /* \"#utility.yul\":8936:8937   */\n      0x00\n        /* \"#utility.yul\":8932:8941   */\n      sub\n        /* \"#utility.yul\":8929:8930   */\n      dup4\n        /* \"#utility.yul\":8926:8942   */\n      eq\n        /* \"#utility.yul\":8845:8911   */\n      0x8000000000000000000000000000000000000000000000000000000000000000\n        /* \"#utility.yul\":8842:8843   */\n      dup4\n        /* \"#utility.yul\":8839:8912   */\n      eq\n        /* \"#utility.yul\":8822:8952   */\n      and\n        /* \"#utility.yul\":8819:8975   */\n      iszero\n      tag_177\n      jumpi\n        /* \"#utility.yul\":8955:8973   */\n      tag_178\n      tag_67\n      jump\t// in\n    tag_178:\n        /* \"#utility.yul\":8819:8975   */\n    tag_177:\n        /* \"#utility.yul\":8998:8999   */\n      dup3\n        /* \"#utility.yul\":8995:8996   */\n      dup3\n        /* \"#utility.yul\":8990:9000   */\n      sdiv\n        /* \"#utility.yul\":8985:9000   */\n      swap1\n      pop\n        /* \"#utility.yul\":8621:9006   */\n      swap3\n      swap2\n      pop\n      pop\n      jump\t// out\n        /* \"#utility.yul\":9012:9192   */\n    tag_68:\n        /* \"#utility.yul\":9060:9137   */\n      0x4e487b7100000000000000000000000000000000000000000000000000000000\n        /* \"#utility.yul\":9057:9058   */\n      0x00\n        /* \"#utility.yul\":9050:9138   */\n      mstore\n        /* \"#utility.yul\":9157:9161   */\n      0x22\n        /* \"#utility.yul\":9154:9155   */\n      0x04\n        /* \"#utility.yul\":9147:9162   */\n      mstore\n        /* \"#utility.yul\":9181:9185   */\n      0x24\n        /* \"#utility.yul\":9178:9179   */\n      0x00\n        /* \"#utility.yul\":9171:9186   */\n      revert\n        /* \"#utility.yul\":9198:9518   */\n    tag_18:\n        /* \"#utility.yul\":9242:9248   */\n      0x00\n        /* \"#utility.yul\":9279:9280   */\n      0x02\n        /* \"#utility.yul\":9273:9277   */\n      dup3\n        /* \"#utility.yul\":9269:9281   */\n      div\n        /* \"#utility.yul\":9259:9281   */\n      swap1\n      pop\n        /* \"#utility.yul\":9326:9327   */\n      0x01\n        /* \"#utility.yul\":9320:9324   */\n      dup3\n        /* \"#utility.yul\":9316:9328   */\n      and\n        /* \"#utility.yul\":9347:9365   */\n      dup1\n        /* \"#utility.yul\":9337:9418   */\n      tag_181\n      jumpi\n        /* \"#utility.yul\":9403:9407   */\n      0x7f\n        /* \"#utility.yul\":9395:9401   */\n      dup3\n        /* \"#utility.yul\":9391:9408   */\n      and\n        /* \"#utility.yul\":9381:9408   */\n      swap2\n      pop\n        /* \"#utility.yul\":9337:9418   */\n    tag_181:\n        /* \"#utility.yul\":9465:9467   */\n      0x20\n        /* \"#utility.yul\":9457:9463   */\n      dup3\n        /* \"#utility.yul\":9454:9468   */\n      lt\n        /* \"#utility.yul\":9434:9452   */\n      dup2\n        /* \"#utility.yul\":9431:9469   */\n      sub\n        /* \"#utility.yul\":9428:9512   */\n      tag_182\n      jumpi\n        /* \"#utility.yul\":9484:9502   */\n      tag_183\n      tag_68\n      jump\t// in\n    tag_183:\n        /* \"#utility.yul\":9428:9512   */\n    tag_182:\n        /* \"#utility.yul\":9249:9518   */\n      pop\n        /* \"#utility.yul\":9198:9518   */\n      swap2\n      swap1\n      pop\n      jump\t// out\n        /* \"#utility.yul\":9524:10080   */\n    tag_35:\n        /* \"#utility.yul\":9563:9570   */\n      0x00\n        /* \"#utility.yul\":9586:9605   */\n      tag_185\n        /* \"#utility.yul\":9603:9604   */\n      dup3\n        /* \"#utility.yul\":9586:9605   */\n      tag_41\n      jump\t// in\n    tag_185:\n        /* \"#utility.yul\":9581:9605   */\n      swap2\n      pop\n        /* \"#utility.yul\":9619:9638   */\n      tag_186\n        /* \"#utility.yul\":9636:9637   */\n      dup4\n        /* \"#utility.yul\":9619:9638   */\n      tag_41\n      jump\t// in\n    tag_186:\n        /* \"#utility.yul\":9614:9638   */\n      swap3\n      pop\n        /* \"#utility.yul\":9673:9674   */\n      dup3\n        /* \"#utility.yul\":9670:9671   */\n      dup3\n        /* \"#utility.yul\":9666:9675   */\n      mul\n        /* \"#utility.yul\":9695:9724   */\n      tag_187\n        /* \"#utility.yul\":9712:9723   */\n      dup2\n        /* \"#utility.yul\":9695:9724   */\n      tag_41\n      jump\t// in\n    tag_187:\n        /* \"#utility.yul\":9684:9724   */\n      swap2\n      pop\n        /* \"#utility.yul\":9782:9848   */\n      0x8000000000000000000000000000000000000000000000000000000000000000\n        /* \"#utility.yul\":9779:9780   */\n      dup5\n        /* \"#utility.yul\":9776:9849   */\n      eq\n        /* \"#utility.yul\":9772:9773   */\n      0x00\n        /* \"#utility.yul\":9769:9770   */\n      dup5\n        /* \"#utility.yul\":9765:9774   */\n      slt\n        /* \"#utility.yul\":9761:9850   */\n      and\n        /* \"#utility.yul\":9758:9873   */\n      iszero\n      tag_188\n      jumpi\n        /* \"#utility.yul\":9853:9871   */\n      tag_189\n      tag_67\n      jump\t// in\n    tag_189:\n        /* \"#utility.yul\":9758:9873   */\n    tag_188:\n        /* \"#utility.yul\":10023:10024   */\n      dup3\n        /* \"#utility.yul\":10014:10021   */\n      dup3\n        /* \"#utility.yul\":10009:10025   */\n      sdiv\n        /* \"#utility.yul\":10006:10007   */\n      dup5\n        /* \"#utility.yul\":10003:10026   */\n      eq\n        /* \"#utility.yul\":9983:9984   */\n      dup4\n        /* \"#utility.yul\":9976:9985   */\n      iszero\n        /* \"#utility.yul\":9956:10040   */\n      or\n        /* \"#utility.yul\":9933:10073   */\n      tag_190\n      jumpi\n        /* \"#utility.yul\":10053:10071   */\n      tag_191\n      tag_67\n      jump\t// in\n    tag_191:\n        /* \"#utility.yul\":9933:10073   */\n    tag_190:\n        /* \"#utility.yul\":9571:10080   */\n      pop\n        /* \"#utility.yul\":9524:10080   */\n      swap3\n      swap2\n      pop\n      pop\n      jump\t// out\n        /* \"#utility.yul\":10086:10227   */\n    tag_69:\n        /* \"#utility.yul\":10135:10139   */\n      0x00\n        /* \"#utility.yul\":10158:10161   */\n      dup2\n        /* \"#utility.yul\":10150:10161   */\n      swap1\n      pop\n        /* \"#utility.yul\":10181:10184   */\n      dup2\n        /* \"#utility.yul\":10178:10179   */\n      0x00\n        /* \"#utility.yul\":10171:10185   */\n      mstore\n        /* \"#utility.yul\":10215:10219   */\n      0x20\n        /* \"#utility.yul\":10212:10213   */\n      0x00\n        /* \"#utility.yul\":10202:10220   */\n      keccak256\n        /* \"#utility.yul\":10194:10220   */\n      swap1\n      pop\n        /* \"#utility.yul\":10086:10227   */\n      swap2\n      swap1\n      pop\n      jump\t// out\n        /* \"#utility.yul\":10233:10326   */\n    tag_70:\n        /* \"#utility.yul\":10270:10276   */\n      0x00\n        /* \"#utility.yul\":10317:10319   */\n      0x20\n        /* \"#utility.yul\":10312:10314   */\n      0x1f\n        /* \"#utility.yul\":10305:10310   */\n      dup4\n        /* \"#utility.yul\":10301:10315   */\n      add\n        /* \"#utility.yul\":10297:10320   */\n      div\n        /* \"#utility.yul\":10287:10320   */\n      swap1\n      pop\n        /* \"#utility.yul\":10233:10326   */\n      swap2\n      swap1\n      pop\n      jump\t// out\n        /* \"#utility.yul\":10332:10439   */\n    tag_71:\n        /* \"#utility.yul\":10376:10384   */\n      0x00\n        /* \"#utility.yul\":10426:10431   */\n      dup3\n        /* \"#utility.yul\":10420:10424   */\n      dup3\n        /* \"#utility.yul\":10416:10432   */\n      shl\n        /* \"#utility.yul\":10395:10432   */\n      swap1\n      pop\n        /* \"#utility.yul\":10332:10439   */\n      swap3\n      swap2\n      pop\n      pop\n      jump\t// out\n        /* \"#utility.yul\":10445:10838   */\n    tag_72:\n        /* \"#utility.yul\":10514:10520   */\n      0x00\n        /* \"#utility.yul\":10564:10565   */\n      0x08\n        /* \"#utility.yul\":10552:10562   */\n      dup4\n        /* \"#utility.yul\":10548:10566   */\n      mul\n        /* \"#utility.yul\":10587:10684   */\n      tag_196\n        /* \"#utility.yul\":10617:10683   */\n      0xffffffffffffffffffffffffffffffffffffffffffffffffffffffffffffffff\n        /* \"#utility.yul\":10606:10615   */\n      dup3\n        /* \"#utility.yul\":10587:10684   */\n      tag_71\n      jump\t// in\n    tag_196:\n        /* \"#utility.yul\":10705:10744   */\n      tag_197\n        /* \"#utility.yul\":10735:10743   */\n      dup7\n        /* \"#utility.yul\":10724:10733   */\n      dup4\n        /* \"#utility.yul\":10705:10744   */\n      tag_71\n      jump\t// in\n    tag_197:\n        /* \"#utility.yul\":10693:10744   */\n      swap6\n      pop\n        /* \"#utility.yul\":10777:10781   */\n      dup1\n        /* \"#utility.yul\":10773:10782   */\n      not\n        /* \"#utility.yul\":10766:10771   */\n      dup5\n        /* \"#utility.yul\":10762:10783   */\n      and\n        /* \"#utility.yul\":10753:10783   */\n      swap4\n      pop\n        /* \"#utility.yul\":10826:10830   */\n      dup1\n        /* \"#utility.yul\":10816:10824   */\n      dup7\n        /* \"#utility.yul\":10812:10831   */\n      and\n        /* \"#utility.yul\":10805:10810   */\n      dup5\n        /* \"#utility.yul\":10802:10832   */\n      or\n        /* \"#utility.yul\":10792:10832   */\n      swap3\n      pop\n        /* \"#utility.yul\":10521:10838   */\n      pop\n      pop\n        /* \"#utility.yul\":10445:10838   */\n      swap4\n      swap3\n      pop\n      pop\n      pop\n      jump\t// out\n        /* \"#utility.yul\":10844:10904   */\n    tag_73:\n        /* \"#utility.yul\":10872:10875   */\n      0x00\n        /* \"#utility.yul\":10893:10898   */\n      dup2\n        /* \"#utility.yul\":10886:10898   */\n      swap1\n      pop\n        /* \"#utility.yul\":10844:10904   */\n      swap2\n      swap1\n      pop\n      jump\t// out\n        /* \"#utility.yul\":10910:11052   */\n    tag_74:\n        /* \"#utility.yul\":10960:10969   */\n      0x00\n        /* \"#utility.yul\":10993:11046   */\n      tag_200\n        /* \"#utility.yul\":11011:11045   */\n      tag_201\n        /* \"#utility.yul\":11020:11044   */\n      tag_202\n        /* \"#utility.yul\":11038:11043   */\n      dup5\n        /* \"#utility.yul\":11020:11044   */\n      tag_43\n      jump\t// in\n    tag_202:\n        /* \"#utility.yul\":11011:11045   */\n      tag_73\n      jump\t// in\n    tag_201:\n        /* \"#utility.yul\":10993:11046   */\n      tag_43\n      jump\t// in\n    tag_200:\n        /* \"#utility.yul\":10980:11046   */\n      swap1\n      pop\n        /* \"#utility.yul\":10910:11052   */\n      swap2\n      swap1\n      pop\n      jump\t// out\n        /* \"#utility.yul\":11058:11133   */\n    tag_75:\n        /* \"#utility.yul\":11101:11104   */\n      0x00\n        /* \"#utility.yul\":11122:11127   */\n      dup2\n        /* \"#utility.yul\":11115:11127   */\n      swap1\n      pop\n        /* \"#utility.yul\":11058:11133   */\n      swap2\n      swap1\n      pop\n      jump\t// out\n        /* \"#utility.yul\":11139:11408   */\n    tag_76:\n        /* \"#utility.yul\":11249:11288   */\n      tag_205\n        /* \"#utility.yul\":11280:11287   */\n      dup4\n        /* \"#utility.yul\":11249:11288   */\n      tag_74\n      jump\t// in\n    tag_205:\n        /* \"#utility.yul\":11310:11401   */\n      tag_206\n        /* \"#utility.yul\":11359:11400   */\n      tag_207\n        /* \"#utility.yul\":11383:11399   */\n      dup3\n        /* \"#utility.yul\":11359:11400   */\n      tag_75\n      jump\t// in\n    tag_207:\n        /* \"#utility.yul\":11351:11357   */\n      dup5\n        /* \"#utility.yul\":11344:11348   */\n      dup5\n        /* \"#utility.yul\":11338:11349   */\n      sload\n        /* \"#utility.yul\":11310:11401   */\n      tag_72\n      jump\t// in\n    tag_206:\n        /* \"#utility.yul\":11304:11308   */\n      dup3\n        /* \"#utility.yul\":11297:11402   */\n      sstore\n        /* \"#utility.yul\":11215:11408   */\n      pop\n        /* \"#utility.yul\":11139:11408   */\n      pop\n      pop\n      pop\n      jump\t// out\n        /* \"#utility.yul\":11414:11487   */\n    tag_77:\n        /* \"#utility.yul\":11459:11462   */\n      0x00\n        /* \"#utility.yul\":11414:11487   */\n      swap1\n      jump\t// out\n        /* \"#utility.yul\":11493:11682   */\n    tag_78:\n        /* \"#utility.yul\":11570:11602   */\n      tag_210\n      tag_77\n      jump\t// in\n    tag_210:\n        /* \"#utility.yul\":11611:11676   */\n      tag_211\n        /* \"#utility.yul\":11669:11675   */\n      dup2\n        /* \"#utility.yul\":11661:11667   */\n      dup5\n        /* \"#utility.yul\":11655:11659   */\n      dup5\n        /* \"#utility.yul\":11611:11676   */\n      tag_76\n      jump\t// in\n    tag_211:\n        /* \"#utility.yul\":11546:11682   */\n      pop\n        /* \"#utility.yul\":11493:11682   */\n      pop\n      pop\n      jump\t// out\n        /* \"#utility.yul\":11688:11874   */\n    tag_79:\n        /* \"#utility.yul\":11748:11868   */\n    tag_213:\n        /* \"#utility.yul\":11765:11768   */\n      dup2\n        /* \"#utility.yul\":11758:11763   */\n      dup2\n        /* \"#utility.yul\":11755:11769   */\n      lt\n        /* \"#utility.yul\":11748:11868   */\n      iszero\n      tag_215\n      jumpi\n        /* \"#utility.yul\":11819:11858   */\n      tag_216\n        /* \"#utility.yul\":11856:11857   */\n      0x00\n        /* \"#utility.yul\":11849:11854   */\n      dup3\n        /* \"#utility.yul\":11819:11858   */\n      tag_78\n      jump\t// in\n    tag_216:\n        /* \"#utility.yul\":11792:11793   */\n      0x01\n        /* \"#utility.yul\":11785:11790   */\n      dup2\n        /* \"#utility.yul\":11781:11794   */\n      add\n        /* \"#utility.yul\":11772:11794   */\n      swap1\n      pop\n        /* \"#utility.yul\":11748:11868   */\n      jump(tag_213)\n    tag_215:\n        /* \"#utility.yul\":11688:11874   */\n      pop\n      pop\n      jump\t// out\n        /* \"#utility.yul\":11880:12423   */\n    tag_80:\n        /* \"#utility.yul\":11981:11983   */\n      0x1f\n        /* \"#utility.yul\":11976:11979   */\n      dup3\n        /* \"#utility.yul\":11973:11984   */\n      gt\n        /* \"#utility.yul\":11970:12416   */\n      iszero\n      tag_218\n      jumpi\n        /* \"#utility.yul\":12015:12053   */\n      tag_219\n        /* \"#utility.yul\":12047:12052   */\n      dup2\n        /* \"#utility.yul\":12015:12053   */\n      tag_69\n      jump\t// in\n    tag_219:\n        /* \"#utility.yul\":12099:12128   */\n      tag_220\n        /* \"#utility.yul\":12117:12127   */\n      dup5\n        /* \"#utility.yul\":12099:12128   */\n      tag_70\n      jump\t// in\n    tag_220:\n        /* \"#utility.yul\":12089:12097   */\n      dup2\n        /* \"#utility.yul\":12085:12129   */\n      add\n        /* \"#utility.yul\":12282:12284   */\n      0x20\n        /* \"#utility.yul\":12270:12280   */\n      dup6\n        /* \"#utility.yul\":12267:12285   */\n      lt\n        /* \"#utility.yul\":12264:12313   */\n      iszero\n      tag_221\n      jumpi\n        /* \"#utility.yul\":12303:12311   */\n      dup2\n        /* \"#utility.yul\":12288:12311   */\n      swap1\n      pop\n        /* \"#utility.yul\":12264:12313   */\n    tag_221:\n        /* \"#utility.yul\":12326:12406   */\n      tag_222\n        /* \"#utility.yul\":12382:12404   */\n      tag_223\n        /* \"#utility.yul\":12400:12403   */\n      dup6\n        /* \"#utility.yul\":12382:12404   */\n      tag_70\n      jump\t// in\n    tag_223:\n        /* \"#utility.yul\":12372:12380   */\n      dup4\n        /* \"#utility.yul\":12368:12405   */\n      add\n        /* \"#utility.yul\":12355:12366   */\n      dup3\n        /* \"#utility.yul\":12326:12406   */\n      tag_79\n      jump\t// in\n    tag_222:\n        /* \"#utility.yul\":11985:12416   */\n      pop\n      pop\n        /* \"#utility.yul\":11970:12416   */\n    tag_218:\n        /* \"#utility.yul\":11880:12423   */\n      pop\n      pop\n      pop\n      jump\t// out\n        /* \"#utility.yul\":12429:12546   */\n    tag_81:\n        /* \"#utility.yul\":12483:12491   */\n      0x00\n        /* \"#utility.yul\":12533:12538   */\n      dup3\n        /* \"#utility.yul\":12527:12531   */\n      dup3\n        /* \"#utility.yul\":12523:12539   */\n      shr\n        /* \"#utility.yul\":12502:12539   */\n      swap1\n      pop\n        /* \"#utility.yul\":12429:12546   */\n      swap3\n      swap2\n      pop\n      pop\n      jump\t// out\n        /* \"#utility.yul\":12552:12721   */\n    tag_82:\n        /* \"#utility.yul\":12596:12602   */\n      0x00\n        /* \"#utility.yul\":12629:12680   */\n      tag_226\n        /* \"#utility.yul\":12677:12678   */\n      0x00\n        /* \"#utility.yul\":12673:12679   */\n      not\n        /* \"#utility.yul\":12665:12670   */\n      dup5\n        /* \"#utility.yul\":12662:12663   */\n      0x08\n        /* \"#utility.yul\":12658:12671   */\n      mul\n        /* \"#utility.yul\":12629:12680   */\n      tag_81\n      jump\t// in\n    tag_226:\n        /* \"#utility.yul\":12625:12681   */\n      not\n        /* \"#utility.yul\":12710:12714   */\n      dup1\n        /* \"#utility.yul\":12704:12708   */\n      dup4\n        /* \"#utility.yul\":12700:12715   */\n      and\n        /* \"#utility.yul\":12690:12715   */\n      swap2\n      pop\n        /* \"#utility.yul\":12603:12721   */\n      pop\n        /* \"#utility.yul\":12552:12721   */\n      swap3\n      swap2\n      pop\n      pop\n      jump\t// out\n        /* \"#utility.yul\":12726:13021   */\n    tag_83:\n        /* \"#utility.yul\":12802:12806   */\n      0x00\n        /* \"#utility.yul\":12948:12977   */\n      tag_228\n        /* \"#utility.yul\":12973:12976   */\n      dup4\n        /* \"#utility.yul\":12967:12971   */\n      dup4\n        /* \"#utility.yul\":12948:12977   */\n      tag_82\n      jump\t// in\n    tag_228:\n        /* \"#utility.yul\":12940:12977   */\n      swap2\n      pop\n        /* \"#utility.yul\":13010:13013   */\n      dup3\n        /* \"#utility.yul\":13007:13008   */\n      0x02\n        /* \"#utility.yul\":13003:13014   */\n      mul\n        /* \"#utility.yul\":12997:13001   */\n      dup3\n        /* \"#utility.yul\":12994:13015   */\n      or\n        /* \"#utility.yul\":12986:13015   */\n      swap1\n      pop\n        /* \"#utility.yul\":12726:13021   */\n      swap3\n      swap2\n      pop\n      pop\n      jump\t// out\n        /* \"#utility.yul\":13026:14421   */\n    tag_38:\n        /* \"#utility.yul\":13143:13180   */\n      tag_230\n        /* \"#utility.yul\":13176:13179   */\n      dup3\n        /* \"#utility.yul\":13143:13180   */\n      tag_45\n      jump\t// in\n    tag_230:\n        /* \"#utility.yul\":13245:13263   */\n      0xffffffffffffffff\n        /* \"#utility.yul\":13237:13243   */\n      dup2\n        /* \"#utility.yul\":13234:13264   */\n      gt\n        /* \"#utility.yul\":13231:13287   */\n      iszero\n      tag_231\n      jumpi\n        /* \"#utility.yul\":13267:13285   */\n      tag_232\n      tag_59\n      jump\t// in\n    tag_232:\n        /* \"#utility.yul\":13231:13287   */\n    tag_231:\n        /* \"#utility.yul\":13311:13349   */\n      tag_233\n        /* \"#utility.yul\":13343:13347   */\n      dup3\n        /* \"#utility.yul\":13337:13348   */\n      sload\n        /* \"#utility.yul\":13311:13349   */\n      tag_18\n      jump\t// in\n    tag_233:\n        /* \"#utility.yul\":13396:13463   */\n      tag_234\n        /* \"#utility.yul\":13456:13462   */\n      dup3\n        /* \"#utility.yul\":13448:13454   */\n      dup3\n        /* \"#utility.yul\":13442:13446   */\n      dup6\n        /* \"#utility.yul\":13396:13463   */\n      tag_80\n      jump\t// in\n    tag_234:\n        /* \"#utility.yul\":13490:13491   */\n      0x00\n        /* \"#utility.yul\":13514:13518   */\n      0x20\n        /* \"#utility.yul\":13501:13518   */\n      swap1\n      pop\n        /* \"#utility.yul\":13546:13548   */\n      0x1f\n        /* \"#utility.yul\":13538:13544   */\n      dup4\n        /* \"#utility.yul\":13535:13549   */\n      gt\n        /* \"#utility.yul\":13563:13564   */\n      0x01\n        /* \"#utility.yul\":13558:14176   */\n      dup2\n      eq\n      tag_236\n      jumpi\n        /* \"#utility.yul\":14220:14221   */\n      0x00\n        /* \"#utility.yul\":14237:14243   */\n      dup5\n        /* \"#utility.yul\":14234:14311   */\n      iszero\n      tag_237\n      jumpi\n        /* \"#utility.yul\":14286:14295   */\n      dup3\n        /* \"#utility.yul\":14281:14284   */\n      dup8\n        /* \"#utility.yul\":14277:14296   */\n      add\n        /* \"#utility.yul\":14271:14297   */\n      mload\n        /* \"#utility.yul\":14262:14297   */\n      swap1\n      pop\n        /* \"#utility.yul\":14234:14311   */\n    tag_237:\n        /* \"#utility.yul\":14337:14404   */\n      tag_238\n        /* \"#utility.yul\":14397:14403   */\n      dup6\n        /* \"#utility.yul\":14390:14395   */\n      dup3\n        /* \"#utility.yul\":14337:14404   */\n      tag_83\n      jump\t// in\n    tag_238:\n        /* \"#utility.yul\":14331:14335   */\n      dup7\n        /* \"#utility.yul\":14324:14405   */\n      sstore\n        /* \"#utility.yul\":14193:14415   */\n      pop\n        /* \"#utility.yul\":13528:14415   */\n      jump(tag_235)\n        /* \"#utility.yul\":13558:14176   */\n    tag_236:\n        /* \"#utility.yul\":13610:13614   */\n      0x1f\n        /* \"#utility.yul\":13606:13615   */\n      not\n        /* \"#utility.yul\":13598:13604   */\n      dup5\n        /* \"#utility.yul\":13594:13616   */\n      and\n        /* \"#utility.yul\":13644:13681   */\n      tag_239\n        /* \"#utility.yul\":13676:13680   */\n      dup7\n        /* \"#utility.yul\":13644:13681   */\n      tag_69\n      jump\t// in\n    tag_239:\n        /* \"#utility.yul\":13703:13704   */\n      0x00\n        /* \"#utility.yul\":13717:13925   */\n    tag_240:\n        /* \"#utility.yul\":13731:13738   */\n      dup3\n        /* \"#utility.yul\":13728:13729   */\n      dup2\n        /* \"#utility.yul\":13725:13739   */\n      lt\n        /* \"#utility.yul\":13717:13925   */\n      iszero\n      tag_242\n      jumpi\n        /* \"#utility.yul\":13810:13819   */\n      dup5\n        /* \"#utility.yul\":13805:13808   */\n      dup10\n        /* \"#utility.yul\":13801:13820   */\n      add\n        /* \"#utility.yul\":13795:13821   */\n      mload\n        /* \"#utility.yul\":13787:13793   */\n      dup3\n        /* \"#utility.yul\":13780:13822   */\n      sstore\n        /* \"#utility.yul\":13861:13862   */\n      0x01\n        /* \"#utility.yul\":13853:13859   */\n      dup3\n        /* \"#utility.yul\":13849:13863   */\n      add\n        /* \"#utility.yul\":13839:13863   */\n      swap2\n      pop\n        /* \"#utility.yul\":13908:13910   */\n      0x20\n        /* \"#utility.yul\":13897:13906   */\n      dup6\n        /* \"#utility.yul\":13893:13911   */\n      add\n        /* \"#utility.yul\":13880:13911   */\n      swap5\n      pop\n        /* \"#utility.yul\":13754:13758   */\n      0x20\n        /* \"#utility.yul\":13751:13752   */\n      dup2\n        /* \"#utility.yul\":13747:13759   */\n      add\n        /* \"#utility.yul\":13742:13759   */\n      swap1\n      pop\n        /* \"#utility.yul\":13717:13925   */\n      jump(tag_240)\n    tag_242:\n        /* \"#utility.yul\":13953:13959   */\n      dup7\n        /* \"#utility.yul\":13944:13951   */\n      dup4\n        /* \"#utility.yul\":13941:13960   */\n      lt\n        /* \"#utility.yul\":13938:14117   */\n      iszero\n      tag_243\n      jumpi\n        /* \"#utility.yul\":14011:14020   */\n      dup5\n        /* \"#utility.yul\":14006:14009   */\n      dup10\n        /* \"#utility.yul\":14002:14021   */\n      add\n        /* \"#utility.yul\":13996:14022   */\n      mload\n        /* \"#utility.yul\":14054:14102   */\n      tag_244\n        /* \"#utility.yul\":14096:14100   */\n      0x1f\n        /* \"#utility.yul\":14088:14094   */\n      dup10\n        /* \"#utility.yul\":14084:14101   */\n      and\n        /* \"#utility.yul\":14073:14082   */\n      dup3\n        /* \"#utility.yul\":14054:14102   */\n      tag_82\n      jump\t// in\n    tag_244:\n        /* \"#utility.yul\":14046:14052   */\n      dup4\n        /* \"#utility.yul\":14039:14103   */\n      sstore\n        /* \"#utility.yul\":13961:14117   */\n      pop\n        /* \"#utility.yul\":13938:14117   */\n    tag_243:\n        /* \"#utility.yul\":14163:14164   */\n      0x01\n        /* \"#utility.yul\":14159:14160   */\n      0x02\n        /* \"#utility.yul\":14151:14157   */\n      dup9\n        /* \"#utility.yul\":14147:14161   */\n      mul\n        /* \"#utility.yul\":14143:14165   */\n      add\n        /* \"#utility.yul\":14137:14141   */\n      dup9\n        /* \"#utility.yul\":14130:14166   */\n      sstore\n        /* \"#utility.yul\":13565:14176   */\n      pop\n      pop\n      pop\n        /* \"#utility.yul\":13528:14415   */\n    tag_235:\n      pop\n        /* \"#utility.yul\":13118:14421   */\n      pop\n      pop\n      pop\n        /* \"#utility.yul\":13026:14421   */\n      pop\n      pop\n      jump\t// out\n\n    auxdata: 0xa264697066735822122023988ef1a2ef51e11d1e285a80529cadcd06a1bccefb87c6dffb89be2719f71764736f6c63430008190033\n}\n",
				"bytecode": {
					"linkReferences": {},
					"object": "6080604052348015600e575f80fd5b50610bb48061001c5f395ff3fe608060405234801561000f575f80fd5b5060043610610034575f3560e01c8063750a4937146100385780639e2c678514610060575b5f80fd5b61004061007c565b6040516100579b9a999897969594939291906103ed565b60405180910390f35b61007a6004803603810190610075919061063c565b6102a5565b005b5f805f805f60608060605f805f806305f5e1005f80015461009d91906107d7565b90505f6305f5e1005f600101546100b491906107d7565b905081815f600201545f600301545f600401545f6005015f6006015f6007015f600801545f600901545f600a01548580546100ee9061086c565b80601f016020809104026020016040519081016040528092919081815260200182805461011a9061086c565b80156101655780601f1061013c57610100808354040283529160200191610165565b820191905f5260205f20905b81548152906001019060200180831161014857829003601f168201915b505050505095508480546101789061086c565b80601f01602080910402602001604051908101604052809291908181526020018280546101a49061086c565b80156101ef5780601f106101c6576101008083540402835291602001916101ef565b820191905f5260205f20905b8154815290600101906020018083116101d257829003601f168201915b505050505094508380546102029061086c565b80601f016020809104026020016040519081016040528092919081815260200182805461022e9061086c565b80156102795780601f1061025057610100808354040283529160200191610279565b820191905f5260205f20905b81548152906001019060200180831161025c57829003601f168201915b505050505093509c509c509c509c509c509c509c509c509c509c509c505050909192939495969798999a565b6305f5e1008b6102b5919061089c565b5f8001819055506305f5e1008a6102cc919061089c565b5f60010181905550885f60020181905550875f60030181905550865f60040181905550855f60050190816103009190610aaf565b50845f60060190816103129190610aaf565b50835f60070190816103249190610aaf565b50825f60080181905550815f60090181905550805f600a01819055505050505050505050505050565b5f819050919050565b61035f8161034d565b82525050565b5f819050919050565b61037781610365565b82525050565b5f81519050919050565b5f82825260208201905092915050565b8281835e5f83830152505050565b5f601f19601f8301169050919050565b5f6103bf8261037d565b6103c98185610387565b93506103d9818560208601610397565b6103e2816103a5565b840191505092915050565b5f610160820190506104015f83018e610356565b61040e602083018d610356565b61041b604083018c61036e565b610428606083018b61036e565b610435608083018a61036e565b81810360a083015261044781896103b5565b905081810360c083015261045b81886103b5565b905081810360e083015261046f81876103b5565b905061047f61010083018661036e565b61048d61012083018561036e565b61049b61014083018461036e565b9c9b505050505050505050505050565b5f604051905090565b5f80fd5b5f80fd5b6104c58161034d565b81146104cf575f80fd5b50565b5f813590506104e0816104bc565b92915050565b6104ef81610365565b81146104f9575f80fd5b50565b5f8135905061050a816104e6565b92915050565b5f80fd5b5f80fd5b7f4e487b71000000000000000000000000000000000000000000000000000000005f52604160045260245ffd5b61054e826103a5565b810181811067ffffffffffffffff8211171561056d5761056c610518565b5b80604052505050565b5f61057f6104ab565b905061058b8282610545565b919050565b5f67ffffffffffffffff8211156105aa576105a9610518565b5b6105b3826103a5565b9050602081019050919050565b828183375f83830152505050565b5f6105e06105db84610590565b610576565b9050828152602081018484840111156105fc576105fb610514565b5b6106078482856105c0565b509392505050565b5f82601f83011261062357610622610510565b5b81356106338482602086016105ce565b91505092915050565b5f805f805f805f805f805f6101608c8e03121561065c5761065b6104b4565b5b5f6106698e828f016104d2565b9b5050602061067a8e828f016104d2565b9a5050604061068b8e828f016104fc565b995050606061069c8e828f016104fc565b98505060806106ad8e828f016104fc565b97505060a08c013567ffffffffffffffff8111156106ce576106cd6104b8565b5b6106da8e828f0161060f565b96505060c08c013567ffffffffffffffff8111156106fb576106fa6104b8565b5b6107078e828f0161060f565b95505060e08c013567ffffffffffffffff811115610728576107276104b8565b5b6107348e828f0161060f565b9450506101006107468e828f016104fc565b9350506101206107588e828f016104fc565b92505061014061076a8e828f016104fc565b9150509295989b509295989b9093969950565b7f4e487b71000000000000000000000000000000000000000000000000000000005f52601260045260245ffd5b7f4e487b71000000000000000000000000000000000000000000000000000000005f52601160045260245ffd5b5f6107e18261034d565b91506107ec8361034d565b9250826107fc576107fb61077d565b5b60015f0383147f800000000000000000000000000000000000000000000000000000000000000083141615610834576108336107aa565b5b828205905092915050565b7f4e487b71000000000000000000000000000000000000000000000000000000005f52602260045260245ffd5b5f600282049050600182168061088357607f821691505b6020821081036108965761089561083f565b5b50919050565b5f6108a68261034d565b91506108b18361034d565b92508282026108bf8161034d565b91507f800000000000000000000000000000000000000000000000000000000000000084145f841216156108f6576108f56107aa565b5b828205841483151761090b5761090a6107aa565b5b5092915050565b5f819050815f5260205f209050919050565b5f6020601f8301049050919050565b5f82821b905092915050565b5f6008830261096e7fffffffffffffffffffffffffffffffffffffffffffffffffffffffffffffffff82610933565b6109788683610933565b95508019841693508086168417925050509392505050565b5f819050919050565b5f6109b36109ae6109a984610365565b610990565b610365565b9050919050565b5f819050919050565b6109cc83610999565b6109e06109d8826109ba565b84845461093f565b825550505050565b5f90565b6109f46109e8565b6109ff8184846109c3565b505050565b5b81811015610a2257610a175f826109ec565b600181019050610a05565b5050565b601f821115610a6757610a3881610912565b610a4184610924565b81016020851015610a50578190505b610a64610a5c85610924565b830182610a04565b50505b505050565b5f82821c905092915050565b5f610a875f1984600802610a6c565b1980831691505092915050565b5f610a9f8383610a78565b9150826002028217905092915050565b610ab88261037d565b67ffffffffffffffff811115610ad157610ad0610518565b5b610adb825461086c565b610ae6828285610a26565b5f60209050601f831160018114610b17575f8415610b05578287015190505b610b0f8582610a94565b865550610b76565b601f198416610b2586610912565b5f5b82811015610b4c57848901518255600182019150602085019450602081019050610b27565b86831015610b695784890151610b65601f891682610a78565b8355505b6001600288020188555050505b50505050505056fea264697066735822122023988ef1a2ef51e11d1e285a80529cadcd06a1bccefb87c6dffb89be2719f71764736f6c63430008190033",
					"opcodes": "PUSH1 0x80 PUSH1 0x40 MSTORE CALLVALUE DUP1 ISZERO PUSH1 0xE JUMPI PUSH0 DUP1 REVERT JUMPDEST POP PUSH2 0xBB4 DUP1 PUSH2 0x1C PUSH0 CODECOPY PUSH0 RETURN INVALID PUSH1 0x80 PUSH1 0x40 MSTORE CALLVALUE DUP1 ISZERO PUSH2 0xF JUMPI PUSH0 DUP1 REVERT JUMPDEST POP PUSH1 0x4 CALLDATASIZE LT PUSH2 0x34 JUMPI PUSH0 CALLDATALOAD PUSH1 0xE0 SHR DUP1 PUSH4 0x750A4937 EQ PUSH2 0x38 JUMPI DUP1 PUSH4 0x9E2C6785 EQ PUSH2 0x60 JUMPI JUMPDEST PUSH0 DUP1 REVERT JUMPDEST PUSH2 0x40 PUSH2 0x7C JUMP JUMPDEST PUSH1 0x40 MLOAD PUSH2 0x57 SWAP12 SWAP11 SWAP10 SWAP9 SWAP8 SWAP7 SWAP6 SWAP5 SWAP4 SWAP3 SWAP2 SWAP1 PUSH2 0x3ED JUMP JUMPDEST PUSH1 0x40 MLOAD DUP1 SWAP2 SUB SWAP1 RETURN JUMPDEST PUSH2 0x7A PUSH1 0x4 DUP1 CALLDATASIZE SUB DUP2 ADD SWAP1 PUSH2 0x75 SWAP2 SWAP1 PUSH2 0x63C JUMP JUMPDEST PUSH2 0x2A5 JUMP JUMPDEST STOP JUMPDEST PUSH0 DUP1 PUSH0 DUP1 PUSH0 PUSH1 0x60 DUP1 PUSH1 0x60 PUSH0 DUP1 PUSH0 DUP1 PUSH4 0x5F5E100 PUSH0 DUP1 ADD SLOAD PUSH2 0x9D SWAP2 SWAP1 PUSH2 0x7D7 JUMP JUMPDEST SWAP1 POP PUSH0 PUSH4 0x5F5E100 PUSH0 PUSH1 0x1 ADD SLOAD PUSH2 0xB4 SWAP2 SWAP1 PUSH2 0x7D7 JUMP JUMPDEST SWAP1 POP DUP2 DUP2 PUSH0 PUSH1 0x2 ADD SLOAD PUSH0 PUSH1 0x3 ADD SLOAD PUSH0 PUSH1 0x4 ADD SLOAD PUSH0 PUSH1 0x5 ADD PUSH0 PUSH1 0x6 ADD PUSH0 PUSH1 0x7 ADD PUSH0 PUSH1 0x8 ADD SLOAD PUSH0 PUSH1 0x9 ADD SLOAD PUSH0 PUSH1 0xA ADD SLOAD DUP6 DUP1 SLOAD PUSH2 0xEE SWAP1 PUSH2 0x86C JUMP JUMPDEST DUP1 PUSH1 0x1F ADD PUSH1 0x20 DUP1 SWAP2 DIV MUL PUSH1 0x20 ADD PUSH1 0x40 MLOAD SWAP1 DUP2 ADD PUSH1 0x40 MSTORE DUP1 SWAP3 SWAP2 SWAP1 DUP2 DUP2 MSTORE PUSH1 0x20 ADD DUP3 DUP1 SLOAD PUSH2 0x11A SWAP1 PUSH2 0x86C JUMP JUMPDEST DUP1 ISZERO PUSH2 0x165 JUMPI DUP1 PUSH1 0x1F LT PUSH2 0x13C JUMPI PUSH2 0x100 DUP1 DUP4 SLOAD DIV MUL DUP4 MSTORE SWAP2 PUSH1 0x20 ADD SWAP2 PUSH2 0x165 JUMP JUMPDEST DUP3 ADD SWAP2 SWAP1 PUSH0 MSTORE PUSH1 0x20 PUSH0 KECCAK256 SWAP1 JUMPDEST DUP2 SLOAD DUP2 MSTORE SWAP1 PUSH1 0x1 ADD SWAP1 PUSH1 0x20 ADD DUP1 DUP4 GT PUSH2 0x148 JUMPI DUP3 SWAP1 SUB PUSH1 0x1F AND DUP3 ADD SWAP2 JUMPDEST POP POP POP POP POP SWAP6 POP DUP5 DUP1 SLOAD PUSH2 0x178 SWAP1 PUSH2 0x86C JUMP JUMPDEST DUP1 PUSH1 0x1F ADD PUSH1 0x20 DUP1 SWAP2 DIV MUL PUSH1 0x20 ADD PUSH1 0x40 MLOAD SWAP1 DUP2 ADD PUSH1 0x40 MSTORE DUP1 SWAP3 SWAP2 SWAP1 DUP2 DUP2 MSTORE PUSH1 0x20 ADD DUP3 DUP1 SLOAD PUSH2 0x1A4 SWAP1 PUSH2 0x86C JUMP JUMPDEST DUP1 ISZERO PUSH2 0x1EF JUMPI DUP1 PUSH1 0x1F LT PUSH2 0x1C6 JUMPI PUSH2 0x100 DUP1 DUP4 SLOAD DIV MUL DUP4 MSTORE SWAP2 PUSH1 0x20 ADD SWAP2 PUSH2 0x1EF JUMP JUMPDEST DUP3 ADD SWAP2 SWAP1 PUSH0 MSTORE PUSH1 0x20 PUSH0 KECCAK256 SWAP1 JUMPDEST DUP2 SLOAD DUP2 MSTORE SWAP1 PUSH1 0x1 ADD SWAP1 PUSH1 0x20 ADD DUP1 DUP4 GT PUSH2 0x1D2 JUMPI DUP3 SWAP1 SUB PUSH1 0x1F AND DUP3 ADD SWAP2 JUMPDEST POP POP POP POP POP SWAP5 POP DUP4 DUP1 SLOAD PUSH2 0x202 SWAP1 PUSH2 0x86C JUMP JUMPDEST DUP1 PUSH1 0x1F ADD PUSH1 0x20 DUP1 SWAP2 DIV MUL PUSH1 0x20 ADD PUSH1 0x40 MLOAD SWAP1 DUP2 ADD PUSH1 0x40 MSTORE DUP1 SWAP3 SWAP2 SWAP1 DUP2 DUP2 MSTORE PUSH1 0x20 ADD DUP3 DUP1 SLOAD PUSH2 0x22E SWAP1 PUSH2 0x86C JUMP JUMPDEST DUP1 ISZERO PUSH2 0x279 JUMPI DUP1 PUSH1 0x1F LT PUSH2 0x250 JUMPI PUSH2 0x100 DUP1 DUP4 SLOAD DIV MUL DUP4 MSTORE SWAP2 PUSH1 0x20 ADD SWAP2 PUSH2 0x279 JUMP JUMPDEST DUP3 ADD SWAP2 SWAP1 PUSH0 MSTORE PUSH1 0x20 PUSH0 KECCAK256 SWAP1 JUMPDEST DUP2 SLOAD DUP2 MSTORE SWAP1 PUSH1 0x1 ADD SWAP1 PUSH1 0x20 ADD DUP1 DUP4 GT PUSH2 0x25C JUMPI DUP3 SWAP1 SUB PUSH1 0x1F AND DUP3 ADD SWAP2 JUMPDEST POP POP POP POP POP SWAP4 POP SWAP13 POP SWAP13 POP SWAP13 POP SWAP13 POP SWAP13 POP SWAP13 POP SWAP13 POP SWAP13 POP SWAP13 POP SWAP13 POP SWAP13 POP POP POP SWAP1 SWAP2 SWAP3 SWAP4 SWAP5 SWAP6 SWAP7 SWAP8 SWAP9 SWAP10 SWAP11 JUMP JUMPDEST PUSH4 0x5F5E100 DUP12 PUSH2 0x2B5 SWAP2 SWAP1 PUSH2 0x89C JUMP JUMPDEST PUSH0 DUP1 ADD DUP2 SWAP1 SSTORE POP PUSH4 0x5F5E100 DUP11 PUSH2 0x2CC SWAP2 SWAP1 PUSH2 0x89C JUMP JUMPDEST PUSH0 PUSH1 0x1 ADD DUP2 SWAP1 SSTORE POP DUP9 PUSH0 PUSH1 0x2 ADD DUP2 SWAP1 SSTORE POP DUP8 PUSH0 PUSH1 0x3 ADD DUP2 SWAP1 SSTORE POP DUP7 PUSH0 PUSH1 0x4 ADD DUP2 SWAP1 SSTORE POP DUP6 PUSH0 PUSH1 0x5 ADD SWAP1 DUP2 PUSH2 0x300 SWAP2 SWAP1 PUSH2 0xAAF JUMP JUMPDEST POP DUP5 PUSH0 PUSH1 0x6 ADD SWAP1 DUP2 PUSH2 0x312 SWAP2 SWAP1 PUSH2 0xAAF JUMP JUMPDEST POP DUP4 PUSH0 PUSH1 0x7 ADD SWAP1 DUP2 PUSH2 0x324 SWAP2 SWAP1 PUSH2 0xAAF JUMP JUMPDEST POP DUP3 PUSH0 PUSH1 0x8 ADD DUP2 SWAP1 SSTORE POP DUP2 PUSH0 PUSH1 0x9 ADD DUP2 SWAP1 SSTORE POP DUP1 PUSH0 PUSH1 0xA ADD DUP2 SWAP1 SSTORE POP POP POP POP POP POP POP POP POP POP POP POP JUMP JUMPDEST PUSH0 DUP2 SWAP1 POP SWAP2 SWAP1 POP JUMP JUMPDEST PUSH2 0x35F DUP2 PUSH2 0x34D JUMP JUMPDEST DUP3 MSTORE POP POP JUMP JUMPDEST PUSH0 DUP2 SWAP1 POP SWAP2 SWAP1 POP JUMP JUMPDEST PUSH2 0x377 DUP2 PUSH2 0x365 JUMP JUMPDEST DUP3 MSTORE POP POP JUMP JUMPDEST PUSH0 DUP2 MLOAD SWAP1 POP SWAP2 SWAP1 POP JUMP JUMPDEST PUSH0 DUP3 DUP3 MSTORE PUSH1 0x20 DUP3 ADD SWAP1 POP SWAP3 SWAP2 POP POP JUMP JUMPDEST DUP3 DUP2 DUP4 MCOPY PUSH0 DUP4 DUP4 ADD MSTORE POP POP POP JUMP JUMPDEST PUSH0 PUSH1 0x1F NOT PUSH1 0x1F DUP4 ADD AND SWAP1 POP SWAP2 SWAP1 POP JUMP JUMPDEST PUSH0 PUSH2 0x3BF DUP3 PUSH2 0x37D JUMP JUMPDEST PUSH2 0x3C9 DUP2 DUP6 PUSH2 0x387 JUMP JUMPDEST SWAP4 POP PUSH2 0x3D9 DUP2 DUP6 PUSH1 0x20 DUP7 ADD PUSH2 0x397 JUMP JUMPDEST PUSH2 0x3E2 DUP2 PUSH2 0x3A5 JUMP JUMPDEST DUP5 ADD SWAP2 POP POP SWAP3 SWAP2 POP POP JUMP JUMPDEST PUSH0 PUSH2 0x160 DUP3 ADD SWAP1 POP PUSH2 0x401 PUSH0 DUP4 ADD DUP15 PUSH2 0x356 JUMP JUMPDEST PUSH2 0x40E PUSH1 0x20 DUP4 ADD DUP14 PUSH2 0x356 JUMP JUMPDEST PUSH2 0x41B PUSH1 0x40 DUP4 ADD DUP13 PUSH2 0x36E JUMP JUMPDEST PUSH2 0x428 PUSH1 0x60 DUP4 ADD DUP12 PUSH2 0x36E JUMP JUMPDEST PUSH2 0x435 PUSH1 0x80 DUP4 ADD DUP11 PUSH2 0x36E JUMP JUMPDEST DUP2 DUP2 SUB PUSH1 0xA0 DUP4 ADD MSTORE PUSH2 0x447 DUP2 DUP10 PUSH2 0x3B5 JUMP JUMPDEST SWAP1 POP DUP2 DUP2 SUB PUSH1 0xC0 DUP4 ADD MSTORE PUSH2 0x45B DUP2 DUP9 PUSH2 0x3B5 JUMP JUMPDEST SWAP1 POP DUP2 DUP2 SUB PUSH1 0xE0 DUP4 ADD MSTORE PUSH2 0x46F DUP2 DUP8 PUSH2 0x3B5 JUMP JUMPDEST SWAP1 POP PUSH2 0x47F PUSH2 0x100 DUP4 ADD DUP7 PUSH2 0x36E JUMP JUMPDEST PUSH2 0x48D PUSH2 0x120 DUP4 ADD DUP6 PUSH2 0x36E JUMP JUMPDEST PUSH2 0x49B PUSH2 0x140 DUP4 ADD DUP5 PUSH2 0x36E JUMP JUMPDEST SWAP13 SWAP12 POP POP POP POP POP POP POP POP POP POP POP POP JUMP JUMPDEST PUSH0 PUSH1 0x40 MLOAD SWAP1 POP SWAP1 JUMP JUMPDEST PUSH0 DUP1 REVERT JUMPDEST PUSH0 DUP1 REVERT JUMPDEST PUSH2 0x4C5 DUP2 PUSH2 0x34D JUMP JUMPDEST DUP2 EQ PUSH2 0x4CF JUMPI PUSH0 DUP1 REVERT JUMPDEST POP JUMP JUMPDEST PUSH0 DUP2 CALLDATALOAD SWAP1 POP PUSH2 0x4E0 DUP2 PUSH2 0x4BC JUMP JUMPDEST SWAP3 SWAP2 POP POP JUMP JUMPDEST PUSH2 0x4EF DUP2 PUSH2 0x365 JUMP JUMPDEST DUP2 EQ PUSH2 0x4F9 JUMPI PUSH0 DUP1 REVERT JUMPDEST POP JUMP JUMPDEST PUSH0 DUP2 CALLDATALOAD SWAP1 POP PUSH2 0x50A DUP2 PUSH2 0x4E6 JUMP JUMPDEST SWAP3 SWAP2 POP POP JUMP JUMPDEST PUSH0 DUP1 REVERT JUMPDEST PUSH0 DUP1 REVERT JUMPDEST PUSH32 0x4E487B7100000000000000000000000000000000000000000000000000000000 PUSH0 MSTORE PUSH1 0x41 PUSH1 0x4 MSTORE PUSH1 0x24 PUSH0 REVERT JUMPDEST PUSH2 0x54E DUP3 PUSH2 0x3A5 JUMP JUMPDEST DUP2 ADD DUP2 DUP2 LT PUSH8 0xFFFFFFFFFFFFFFFF DUP3 GT OR ISZERO PUSH2 0x56D JUMPI PUSH2 0x56C PUSH2 0x518 JUMP JUMPDEST JUMPDEST DUP1 PUSH1 0x40 MSTORE POP POP POP JUMP JUMPDEST PUSH0 PUSH2 0x57F PUSH2 0x4AB JUMP JUMPDEST SWAP1 POP PUSH2 0x58B DUP3 DUP3 PUSH2 0x545 JUMP JUMPDEST SWAP2 SWAP1 POP JUMP JUMPDEST PUSH0 PUSH8 0xFFFFFFFFFFFFFFFF DUP3 GT ISZERO PUSH2 0x5AA JUMPI PUSH2 0x5A9 PUSH2 0x518 JUMP JUMPDEST JUMPDEST PUSH2 0x5B3 DUP3 PUSH2 0x3A5 JUMP JUMPDEST SWAP1 POP PUSH1 0x20 DUP2 ADD SWAP1 POP SWAP2 SWAP1 POP JUMP JUMPDEST DUP3 DUP2 DUP4 CALLDATACOPY PUSH0 DUP4 DUP4 ADD MSTORE POP POP POP JUMP JUMPDEST PUSH0 PUSH2 0x5E0 PUSH2 0x5DB DUP5 PUSH2 0x590 JUMP JUMPDEST PUSH2 0x576 JUMP JUMPDEST SWAP1 POP DUP3 DUP2 MSTORE PUSH1 0x20 DUP2 ADD DUP5 DUP5 DUP5 ADD GT ISZERO PUSH2 0x5FC JUMPI PUSH2 0x5FB PUSH2 0x514 JUMP JUMPDEST JUMPDEST PUSH2 0x607 DUP5 DUP3 DUP6 PUSH2 0x5C0 JUMP JUMPDEST POP SWAP4 SWAP3 POP POP POP JUMP JUMPDEST PUSH0 DUP3 PUSH1 0x1F DUP4 ADD SLT PUSH2 0x623 JUMPI PUSH2 0x622 PUSH2 0x510 JUMP JUMPDEST JUMPDEST DUP2 CALLDATALOAD PUSH2 0x633 DUP5 DUP3 PUSH1 0x20 DUP7 ADD PUSH2 0x5CE JUMP JUMPDEST SWAP2 POP POP SWAP3 SWAP2 POP POP JUMP JUMPDEST PUSH0 DUP1 PUSH0 DUP1 PUSH0 DUP1 PUSH0 DUP1 PUSH0 DUP1 PUSH0 PUSH2 0x160 DUP13 DUP15 SUB SLT ISZERO PUSH2 0x65C JUMPI PUSH2 0x65B PUSH2 0x4B4 JUMP JUMPDEST JUMPDEST PUSH0 PUSH2 0x669 DUP15 DUP3 DUP16 ADD PUSH2 0x4D2 JUMP JUMPDEST SWAP12 POP POP PUSH1 0x20 PUSH2 0x67A DUP15 DUP3 DUP16 ADD PUSH2 0x4D2 JUMP JUMPDEST SWAP11 POP POP PUSH1 0x40 PUSH2 0x68B DUP15 DUP3 DUP16 ADD PUSH2 0x4FC JUMP JUMPDEST SWAP10 POP POP PUSH1 0x60 PUSH2 0x69C DUP15 DUP3 DUP16 ADD PUSH2 0x4FC JUMP JUMPDEST SWAP9 POP POP PUSH1 0x80 PUSH2 0x6AD DUP15 DUP3 DUP16 ADD PUSH2 0x4FC JUMP JUMPDEST SWAP8 POP POP PUSH1 0xA0 DUP13 ADD CALLDATALOAD PUSH8 0xFFFFFFFFFFFFFFFF DUP2 GT ISZERO PUSH2 0x6CE JUMPI PUSH2 0x6CD PUSH2 0x4B8 JUMP JUMPDEST JUMPDEST PUSH2 0x6DA DUP15 DUP3 DUP16 ADD PUSH2 0x60F JUMP JUMPDEST SWAP7 POP POP PUSH1 0xC0 DUP13 ADD CALLDATALOAD PUSH8 0xFFFFFFFFFFFFFFFF DUP2 GT ISZERO PUSH2 0x6FB JUMPI PUSH2 0x6FA PUSH2 0x4B8 JUMP JUMPDEST JUMPDEST PUSH2 0x707 DUP15 DUP3 DUP16 ADD PUSH2 0x60F JUMP JUMPDEST SWAP6 POP POP PUSH1 0xE0 DUP13 ADD CALLDATALOAD PUSH8 0xFFFFFFFFFFFFFFFF DUP2 GT ISZERO PUSH2 0x728 JUMPI PUSH2 0x727 PUSH2 0x4B8 JUMP JUMPDEST JUMPDEST PUSH2 0x734 DUP15 DUP3 DUP16 ADD PUSH2 0x60F JUMP JUMPDEST SWAP5 POP POP PUSH2 0x100 PUSH2 0x746 DUP15 DUP3 DUP16 ADD PUSH2 0x4FC JUMP JUMPDEST SWAP4 POP POP PUSH2 0x120 PUSH2 0x758 DUP15 DUP3 DUP16 ADD PUSH2 0x4FC JUMP JUMPDEST SWAP3 POP POP PUSH2 0x140 PUSH2 0x76A DUP15 DUP3 DUP16 ADD PUSH2 0x4FC JUMP JUMPDEST SWAP2 POP POP SWAP3 SWAP6 SWAP9 SWAP12 POP SWAP3 SWAP6 SWAP9 SWAP12 SWAP1 SWAP4 SWAP7 SWAP10 POP JUMP JUMPDEST PUSH32 0x4E487B7100000000000000000000000000000000000000000000000000000000 PUSH0 MSTORE PUSH1 0x12 PUSH1 0x4 MSTORE PUSH1 0x24 PUSH0 REVERT JUMPDEST PUSH32 0x4E487B7100000000000000000000000000000000000000000000000000000000 PUSH0 MSTORE PUSH1 0x11 PUSH1 0x4 MSTORE PUSH1 0x24 PUSH0 REVERT JUMPDEST PUSH0 PUSH2 0x7E1 DUP3 PUSH2 0x34D JUMP JUMPDEST SWAP2 POP PUSH2 0x7EC DUP4 PUSH2 0x34D JUMP JUMPDEST SWAP3 POP DUP3 PUSH2 0x7FC JUMPI PUSH2 0x7FB PUSH2 0x77D JUMP JUMPDEST JUMPDEST PUSH1 0x1 PUSH0 SUB DUP4 EQ PUSH32 0x8000000000000000000000000000000000000000000000000000000000000000 DUP4 EQ AND ISZERO PUSH2 0x834 JUMPI PUSH2 0x833 PUSH2 0x7AA JUMP JUMPDEST JUMPDEST DUP3 DUP3 SDIV SWAP1 POP SWAP3 SWAP2 POP POP JUMP JUMPDEST PUSH32 0x4E487B7100000000000000000000000000000000000000000000000000000000 PUSH0 MSTORE PUSH1 0x22 PUSH1 0x4 MSTORE PUSH1 0x24 PUSH0 REVERT JUMPDEST PUSH0 PUSH1 0x2 DUP3 DIV SWAP1 POP PUSH1 0x1 DUP3 AND DUP1 PUSH2 0x883 JUMPI PUSH1 0x7F DUP3 AND SWAP2 POP JUMPDEST PUSH1 0x20 DUP3 LT DUP2 SUB PUSH2 0x896 JUMPI PUSH2 0x895 PUSH2 0x83F JUMP JUMPDEST JUMPDEST POP SWAP2 SWAP1 POP JUMP JUMPDEST PUSH0 PUSH2 0x8A6 DUP3 PUSH2 0x34D JUMP JUMPDEST SWAP2 POP PUSH2 0x8B1 DUP4 PUSH2 0x34D JUMP JUMPDEST SWAP3 POP DUP3 DUP3 MUL PUSH2 0x8BF DUP2 PUSH2 0x34D JUMP JUMPDEST SWAP2 POP PUSH32 0x8000000000000000000000000000000000000000000000000000000000000000 DUP5 EQ PUSH0 DUP5 SLT AND ISZERO PUSH2 0x8F6 JUMPI PUSH2 0x8F5 PUSH2 0x7AA JUMP JUMPDEST JUMPDEST DUP3 DUP3 SDIV DUP5 EQ DUP4 ISZERO OR PUSH2 0x90B JUMPI PUSH2 0x90A PUSH2 0x7AA JUMP JUMPDEST JUMPDEST POP SWAP3 SWAP2 POP POP JUMP JUMPDEST PUSH0 DUP2 SWAP1 POP DUP2 PUSH0 MSTORE PUSH1 0x20 PUSH0 KECCAK256 SWAP1 POP SWAP2 SWAP1 POP JUMP JUMPDEST PUSH0 PUSH1 0x20 PUSH1 0x1F DUP4 ADD DIV SWAP1 POP SWAP2 SWAP1 POP JUMP JUMPDEST PUSH0 DUP3 DUP3 SHL SWAP1 POP SWAP3 SWAP2 POP POP JUMP JUMPDEST PUSH0 PUSH1 0x8 DUP4 MUL PUSH2 0x96E PUSH32 0xFFFFFFFFFFFFFFFFFFFFFFFFFFFFFFFFFFFFFFFFFFFFFFFFFFFFFFFFFFFFFFFF DUP3 PUSH2 0x933 JUMP JUMPDEST PUSH2 0x978 DUP7 DUP4 PUSH2 0x933 JUMP JUMPDEST SWAP6 POP DUP1 NOT DUP5 AND SWAP4 POP DUP1 DUP7 AND DUP5 OR SWAP3 POP POP POP SWAP4 SWAP3 POP POP POP JUMP JUMPDEST PUSH0 DUP2 SWAP1 POP SWAP2 SWAP1 POP JUMP JUMPDEST PUSH0 PUSH2 0x9B3 PUSH2 0x9AE PUSH2 0x9A9 DUP5 PUSH2 0x365 JUMP JUMPDEST PUSH2 0x990 JUMP JUMPDEST PUSH2 0x365 JUMP JUMPDEST SWAP1 POP SWAP2 SWAP1 POP JUMP JUMPDEST PUSH0 DUP2 SWAP1 POP SWAP2 SWAP1 POP JUMP JUMPDEST PUSH2 0x9CC DUP4 PUSH2 0x999 JUMP JUMPDEST PUSH2 0x9E0 PUSH2 0x9D8 DUP3 PUSH2 0x9BA JUMP JUMPDEST DUP5 DUP5 SLOAD PUSH2 0x93F JUMP JUMPDEST DUP3 SSTORE POP POP POP POP JUMP JUMPDEST PUSH0 SWAP1 JUMP JUMPDEST PUSH2 0x9F4 PUSH2 0x9E8 JUMP JUMPDEST PUSH2 0x9FF DUP2 DUP5 DUP5 PUSH2 0x9C3 JUMP JUMPDEST POP POP POP JUMP JUMPDEST JUMPDEST DUP2 DUP2 LT ISZERO PUSH2 0xA22 JUMPI PUSH2 0xA17 PUSH0 DUP3 PUSH2 0x9EC JUMP JUMPDEST PUSH1 0x1 DUP2 ADD SWAP1 POP PUSH2 0xA05 JUMP JUMPDEST POP POP JUMP JUMPDEST PUSH1 0x1F DUP3 GT ISZERO PUSH2 0xA67 JUMPI PUSH2 0xA38 DUP2 PUSH2 0x912 JUMP JUMPDEST PUSH2 0xA41 DUP5 PUSH2 0x924 JUMP JUMPDEST DUP2 ADD PUSH1 0x20 DUP6 LT ISZERO PUSH2 0xA50 JUMPI DUP2 SWAP1 POP JUMPDEST PUSH2 0xA64 PUSH2 0xA5C DUP6 PUSH2 0x924 JUMP JUMPDEST DUP4 ADD DUP3 PUSH2 0xA04 JUMP JUMPDEST POP POP JUMPDEST POP POP POP JUMP JUMPDEST PUSH0 DUP3 DUP3 SHR SWAP1 POP SWAP3 SWAP2 POP POP JUMP JUMPDEST PUSH0 PUSH2 0xA87 PUSH0 NOT DUP5 PUSH1 0x8 MUL PUSH2 0xA6C JUMP JUMPDEST NOT DUP1 DUP4 AND SWAP2 POP POP SWAP3 SWAP2 POP POP JUMP JUMPDEST PUSH0 PUSH2 0xA9F DUP4 DUP4 PUSH2 0xA78 JUMP JUMPDEST SWAP2 POP DUP3 PUSH1 0x2 MUL DUP3 OR SWAP1 POP SWAP3 SWAP2 POP POP JUMP JUMPDEST PUSH2 0xAB8 DUP3 PUSH2 0x37D JUMP JUMPDEST PUSH8 0xFFFFFFFFFFFFFFFF DUP2 GT ISZERO PUSH2 0xAD1 JUMPI PUSH2 0xAD0 PUSH2 0x518 JUMP JUMPDEST JUMPDEST PUSH2 0xADB DUP3 SLOAD PUSH2 0x86C JUMP JUMPDEST PUSH2 0xAE6 DUP3 DUP3 DUP6 PUSH2 0xA26 JUMP JUMPDEST PUSH0 PUSH1 0x20 SWAP1 POP PUSH1 0x1F DUP4 GT PUSH1 0x1 DUP2 EQ PUSH2 0xB17 JUMPI PUSH0 DUP5 ISZERO PUSH2 0xB05 JUMPI DUP3 DUP8 ADD MLOAD SWAP1 POP JUMPDEST PUSH2 0xB0F DUP6 DUP3 PUSH2 0xA94 JUMP JUMPDEST DUP7 SSTORE POP PUSH2 0xB76 JUMP JUMPDEST PUSH1 0x1F NOT DUP5 AND PUSH2 0xB25 DUP7 PUSH2 0x912 JUMP JUMPDEST PUSH0 JUMPDEST DUP3 DUP2 LT ISZERO PUSH2 0xB4C JUMPI DUP5 DUP10 ADD MLOAD DUP3 SSTORE PUSH1 0x1 DUP3 ADD SWAP2 POP PUSH1 0x20 DUP6 ADD SWAP5 POP PUSH1 0x20 DUP2 ADD SWAP1 POP PUSH2 0xB27 JUMP JUMPDEST DUP7 DUP4 LT ISZERO PUSH2 0xB69 JUMPI DUP5 DUP10 ADD MLOAD PUSH2 0xB65 PUSH1 0x1F DUP10 AND DUP3 PUSH2 0xA78 JUMP JUMPDEST DUP4 SSTORE POP JUMPDEST PUSH1 0x1 PUSH1 0x2 DUP9 MUL ADD DUP9 SSTORE POP POP POP JUMPDEST POP POP POP POP POP POP JUMP INVALID LOG2 PUSH5 0x6970667358 0x22 SLT KECCAK256 0x23 SWAP9 DUP15 CALL LOG2 0xEF MLOAD 0xE1 SAR 0x1E 0x28 GAS DUP1 MSTORE SWAP13 0xAD 0xCD MOD LOG1 0xBC 0xCE 0xFB DUP8 0xC6 0xDF 0xFB DUP10 0xBE 0x27 NOT 0xF7 OR PUSH5 0x736F6C6343 STOP ADDMOD NOT STOP CALLER "
				},
				"gasEstimates": {
					"creation": {
						"codeDepositCost": "599200",
						"executionCost": "630",
						"totalCost": "599830"
					},
					"external": {
						"getCoordinates()": "infinite",
						"storeCoordinates(int256,int256,uint256,uint256,uint256,string,string,string,uint256,uint256,uint256)": "infinite"
					}
				},
				"methodIdentifiers": {
					"getCoordinates()": "750a4937",
					"storeCoordinates(int256,int256,uint256,uint256,uint256,string,string,string,uint256,uint256,uint256)": "9e2c6785"
				}
			},
			"storageLayout": {
				"storage": [
					{
						"astId": 34,
						"contract": "contracts/1_Storage.sol:Storage",
						"label": "coordinates",
						"offset": 0,
						"slot": "0",
						"type": "t_struct(Coordinates)31_storage"
					}
				],
				"types": {
					"t_int256": {
						"encoding": "inplace",
						"label": "int256",
						"numberOfBytes": "32"
					},
					"t_string_storage": {
						"encoding": "bytes",
						"label": "string",
						"numberOfBytes": "32"
					},
					"t_struct(Coordinates)31_storage": {
						"encoding": "inplace",
						"label": "struct Storage.Coordinates",
						"members": [
							{
								"astId": 10,
								"contract": "contracts/1_Storage.sol:Storage",
								"label": "latitude",
								"offset": 0,
								"slot": "0",
								"type": "t_int256"
							},
							{
								"astId": 12,
								"contract": "contracts/1_Storage.sol:Storage",
								"label": "longitude",
								"offset": 0,
								"slot": "1",
								"type": "t_int256"
							},
							{
								"astId": 14,
								"contract": "contracts/1_Storage.sol:Storage",
								"label": "time1",
								"offset": 0,
								"slot": "2",
								"type": "t_uint256"
							},
							{
								"astId": 16,
								"contract": "contracts/1_Storage.sol:Storage",
								"label": "time2",
								"offset": 0,
								"slot": "3",
								"type": "t_uint256"
							},
							{
								"astId": 18,
								"contract": "contracts/1_Storage.sol:Storage",
								"label": "time3",
								"offset": 0,
								"slot": "4",
								"type": "t_uint256"
							},
							{
								"astId": 20,
								"contract": "contracts/1_Storage.sol:Storage",
								"label": "ID1",
								"offset": 0,
								"slot": "5",
								"type": "t_string_storage"
							},
							{
								"astId": 22,
								"contract": "contracts/1_Storage.sol:Storage",
								"label": "ID2",
								"offset": 0,
								"slot": "6",
								"type": "t_string_storage"
							},
							{
								"astId": 24,
								"contract": "contracts/1_Storage.sol:Storage",
								"label": "ID3",
								"offset": 0,
								"slot": "7",
								"type": "t_string_storage"
							},
							{
								"astId": 26,
								"contract": "contracts/1_Storage.sol:Storage",
								"label": "speed1",
								"offset": 0,
								"slot": "8",
								"type": "t_uint256"
							},
							{
								"astId": 28,
								"contract": "contracts/1_Storage.sol:Storage",
								"label": "speed2",
								"offset": 0,
								"slot": "9",
								"type": "t_uint256"
							},
							{
								"astId": 30,
								"contract": "contracts/1_Storage.sol:Storage",
								"label": "speed3",
								"offset": 0,
								"slot": "10",
								"type": "t_uint256"
							}
						],
						"numberOfBytes": "352"
					},
					"t_uint256": {
						"encoding": "inplace",
						"label": "uint256",
						"numberOfBytes": "32"
					}
				}
			},
			"userdoc": {
				"kind": "user",
				"methods": {},
				"version": 1
			}
		}
	}
}